{
  "contractName": "Blood",
  "abi": [
    {
      "inputs": [
        {
          "internalType": "uint256",
          "name": "",
          "type": "uint256"
        }
      ],
      "name": "reports",
      "outputs": [
        {
          "internalType": "uint256",
          "name": "nationalId",
          "type": "uint256"
        },
        {
          "internalType": "uint256",
          "name": "labId",
          "type": "uint256"
        },
        {
          "internalType": "string",
          "name": "imageUrl",
          "type": "string"
        },
        {
          "internalType": "string",
          "name": "status",
          "type": "string"
        },
        {
          "internalType": "uint256",
          "name": "haemoglobin",
          "type": "uint256"
        },
        {
          "internalType": "uint256",
          "name": "haematocrit",
          "type": "uint256"
        },
        {
          "internalType": "uint256",
          "name": "rbcs",
          "type": "uint256"
        },
        {
          "internalType": "string",
          "name": "date",
          "type": "string"
        }
      ],
      "stateMutability": "view",
      "type": "function",
      "constant": true
    },
    {
      "inputs": [
        {
          "internalType": "uint256",
          "name": "_nationalId",
          "type": "uint256"
        },
        {
          "internalType": "uint256",
          "name": "_labId",
          "type": "uint256"
        },
        {
          "internalType": "string",
          "name": "_imageUrl",
          "type": "string"
        },
        {
          "internalType": "string",
          "name": "_status",
          "type": "string"
        },
        {
          "internalType": "uint256",
          "name": "_haemoglobin",
          "type": "uint256"
        },
        {
          "internalType": "uint256",
          "name": "_haematocrit",
          "type": "uint256"
        },
        {
          "internalType": "uint256",
          "name": "_rbcs",
          "type": "uint256"
        },
        {
          "internalType": "string",
          "name": "_date",
          "type": "string"
        }
      ],
      "name": "addReport",
      "outputs": [],
      "stateMutability": "nonpayable",
      "type": "function"
    },
    {
      "inputs": [
        {
          "internalType": "uint256",
          "name": "index",
          "type": "uint256"
        }
      ],
      "name": "getReport",
      "outputs": [
        {
          "components": [
            {
              "internalType": "uint256",
              "name": "nationalId",
              "type": "uint256"
            },
            {
              "internalType": "uint256",
              "name": "labId",
              "type": "uint256"
            },
            {
              "internalType": "string",
              "name": "imageUrl",
              "type": "string"
            },
            {
              "internalType": "string",
              "name": "status",
              "type": "string"
            },
            {
              "internalType": "uint256",
              "name": "haemoglobin",
              "type": "uint256"
            },
            {
              "internalType": "uint256",
              "name": "haematocrit",
              "type": "uint256"
            },
            {
              "internalType": "uint256",
              "name": "rbcs",
              "type": "uint256"
            },
            {
              "internalType": "string",
              "name": "date",
              "type": "string"
            }
          ],
          "internalType": "struct Blood.BloodReport",
          "name": "",
          "type": "tuple"
        }
      ],
      "stateMutability": "view",
      "type": "function",
      "constant": true
    },
    {
      "inputs": [],
      "name": "getAllReports",
      "outputs": [
        {
          "components": [
            {
              "internalType": "uint256",
              "name": "nationalId",
              "type": "uint256"
            },
            {
              "internalType": "uint256",
              "name": "labId",
              "type": "uint256"
            },
            {
              "internalType": "string",
              "name": "imageUrl",
              "type": "string"
            },
            {
              "internalType": "string",
              "name": "status",
              "type": "string"
            },
            {
              "internalType": "uint256",
              "name": "haemoglobin",
              "type": "uint256"
            },
            {
              "internalType": "uint256",
              "name": "haematocrit",
              "type": "uint256"
            },
            {
              "internalType": "uint256",
              "name": "rbcs",
              "type": "uint256"
            },
            {
              "internalType": "string",
              "name": "date",
              "type": "string"
            }
          ],
          "internalType": "struct Blood.BloodReport[]",
          "name": "",
          "type": "tuple[]"
        }
      ],
      "stateMutability": "view",
      "type": "function",
      "constant": true
    }
  ],
  "bytecode": "0x608060405234801561001057600080fd5b50610d2e806100206000396000f3fe608060405234801561001057600080fd5b506004361061004c5760003560e01c80634e7f9b1914610051578063c942adf71461007a578063f3d3ddfa146100a1578063f5419ea4146100b6575b600080fd5b61006461005f3660046109fa565b6100cb565b6040516100719190610c24565b60405180910390f35b61008d6100883660046109fa565b610327565b604051610071989796959493929190610c3e565b6100a9610517565b6040516100719190610b97565b6100c96100c4366004610a12565b61075f565b005b6100d361089b565b60005482106100fd5760405162461bcd60e51b81526004016100f490610bf7565b60405180910390fd5b6000828154811061011e57634e487b7160e01b600052603260045260246000fd5b906000526020600020906008020160405180610100016040529081600082015481526020016001820154815260200160028201805461015c90610ca7565b80601f016020809104026020016040519081016040528092919081815260200182805461018890610ca7565b80156101d55780601f106101aa576101008083540402835291602001916101d5565b820191906000526020600020905b8154815290600101906020018083116101b857829003601f168201915b505050505081526020016003820180546101ee90610ca7565b80601f016020809104026020016040519081016040528092919081815260200182805461021a90610ca7565b80156102675780601f1061023c57610100808354040283529160200191610267565b820191906000526020600020905b81548152906001019060200180831161024a57829003601f168201915b5050505050815260200160048201548152602001600582015481526020016006820154815260200160078201805461029e90610ca7565b80601f01602080910402602001604051908101604052809291908181526020018280546102ca90610ca7565b80156103175780601f106102ec57610100808354040283529160200191610317565b820191906000526020600020905b8154815290600101906020018083116102fa57829003601f168201915b5050505050815250509050919050565b6000818154811061033757600080fd5b906000526020600020906008020160009150905080600001549080600101549080600201805461036690610ca7565b80601f016020809104026020016040519081016040528092919081815260200182805461039290610ca7565b80156103df5780601f106103b4576101008083540402835291602001916103df565b820191906000526020600020905b8154815290600101906020018083116103c257829003601f168201915b5050505050908060030180546103f490610ca7565b80601f016020809104026020016040519081016040528092919081815260200182805461042090610ca7565b801561046d5780601f106104425761010080835404028352916020019161046d565b820191906000526020600020905b81548152906001019060200180831161045057829003601f168201915b50505050509080600401549080600501549080600601549080600701805461049490610ca7565b80601f01602080910402602001604051908101604052809291908181526020018280546104c090610ca7565b801561050d5780601f106104e25761010080835404028352916020019161050d565b820191906000526020600020905b8154815290600101906020018083116104f057829003601f168201915b5050505050905088565b60606000805480602002602001604051908101604052809291908181526020016000905b82821015610756578382906000526020600020906008020160405180610100016040529081600082015481526020016001820154815260200160028201805461058390610ca7565b80601f01602080910402602001604051908101604052809291908181526020018280546105af90610ca7565b80156105fc5780601f106105d1576101008083540402835291602001916105fc565b820191906000526020600020905b8154815290600101906020018083116105df57829003601f168201915b5050505050815260200160038201805461061590610ca7565b80601f016020809104026020016040519081016040528092919081815260200182805461064190610ca7565b801561068e5780601f106106635761010080835404028352916020019161068e565b820191906000526020600020905b81548152906001019060200180831161067157829003601f168201915b505050505081526020016004820154815260200160058201548152602001600682015481526020016007820180546106c590610ca7565b80601f01602080910402602001604051908101604052809291908181526020018280546106f190610ca7565b801561073e5780601f106107135761010080835404028352916020019161073e565b820191906000526020600020905b81548152906001019060200180831161072157829003601f168201915b5050505050815250508152602001906001019061053b565b50505050905090565b604080516101008101825289815260208082018a8152928201898152606083018990526080830188905260a0830187905260c0830186905260e083018590526000805460018101825590805283517f290decd9548b62a8d60345a988386fc84ba6bc95484008f6362f93160ef3e563600890920291820190815594517f290decd9548b62a8d60345a988386fc84ba6bc95484008f6362f93160ef3e56482015590518051939485949093610837937f290decd9548b62a8d60345a988386fc84ba6bc95484008f6362f93160ef3e565019201906108e0565b50606082015180516108539160038401916020909101906108e0565b506080820151600482015560a0820151600582015560c0820151600682015560e0820151805161088d9160078401916020909101906108e0565b505050505050505050505050565b60405180610100016040528060008152602001600081526020016060815260200160608152602001600081526020016000815260200160008152602001606081525090565b8280546108ec90610ca7565b90600052602060002090601f01602090048101928261090e5760008555610954565b82601f1061092757805160ff1916838001178555610954565b82800160010185558215610954579182015b82811115610954578251825591602001919060010190610939565b50610960929150610964565b5090565b5b808211156109605760008155600101610965565b600082601f830112610989578081fd5b813567ffffffffffffffff808211156109a4576109a4610ce2565b604051601f8301601f1916810160200182811182821017156109c8576109c8610ce2565b6040528281528483016020018610156109df578384fd5b82602086016020830137918201602001929092529392505050565b600060208284031215610a0b578081fd5b5035919050565b600080600080600080600080610100898b031215610a2e578384fd5b8835975060208901359650604089013567ffffffffffffffff80821115610a53578586fd5b610a5f8c838d01610979565b975060608b0135915080821115610a74578586fd5b610a808c838d01610979565b965060808b0135955060a08b0135945060c08b0135935060e08b0135915080821115610aaa578283fd5b50610ab78b828c01610979565b9150509295985092959890939650565b60008151808452815b81811015610aec57602081850181015186830182015201610ad0565b81811115610afd5782602083870101525b50601f01601f19169290920160200192915050565b600061010082518452602083015160208501526040830151816040860152610b3c82860182610ac7565b91505060608301518482036060860152610b568282610ac7565b9150506080830151608085015260a083015160a085015260c083015160c085015260e083015184820360e0860152610b8e8282610ac7565b95945050505050565b6000602080830181845280855180835260408601915060408482028701019250838701855b82811015610bea57603f19888603018452610bd8858351610b12565b94509285019290850190600101610bbc565b5092979650505050505050565b602080825260139082015272496e646578206f7574206f6620626f756e647360681b604082015260600190565b600060208252610c376020830184610b12565b9392505050565b60006101008a8352896020840152806040840152610c5e8184018a610ac7565b90508281036060840152610c728189610ac7565b90508660808401528560a08401528460c084015282810360e0840152610c988185610ac7565b9b9a5050505050505050505050565b600281046001821680610cbb57607f821691505b60208210811415610cdc57634e487b7160e01b600052602260045260246000fd5b50919050565b634e487b7160e01b600052604160045260246000fdfea2646970667358221220b5d0f4949de87ecb45e5522de9672782d37d83dc5ce66c009a5e51f622b1af3364736f6c63430008000033",
  "immutableReferences": {},
  "source": "// SPDX-License-Identifier: MIT\r\npragma solidity ^0.8.0;\r\n\r\ncontract Blood {\r\n    struct BloodReport {\r\n        uint256 nationalId;\r\n        uint256 labId;\r\n        string imageUrl;\r\n        string status;\r\n        uint256 haemoglobin;\r\n        uint256 haematocrit;\r\n        uint256 rbcs;\r\n        string date;\r\n    }\r\n\r\n    BloodReport[] public reports;\r\n\r\n    function addReport(\r\n        uint256 _nationalId,\r\n        uint256 _labId,\r\n        string memory _imageUrl,\r\n        string memory _status,\r\n        uint256 _haemoglobin,\r\n        uint256 _haematocrit,\r\n        uint256 _rbcs,\r\n        string memory _date\r\n    ) public {\r\n        BloodReport memory newReport = BloodReport({\r\n            nationalId: _nationalId,\r\n            labId: _labId,\r\n            imageUrl: _imageUrl,\r\n            status: _status,\r\n            haemoglobin: _haemoglobin,\r\n            haematocrit: _haematocrit,\r\n            rbcs: _rbcs,\r\n            date: _date\r\n        });\r\n\r\n        reports.push(newReport);\r\n    }\r\n\r\n    function getReport(uint256 index) public view returns (BloodReport memory) {\r\n        require(index < reports.length, \"Index out of bounds\");\r\n        return reports[index];\r\n    }\r\n\r\n    function getAllReports() public view returns (BloodReport[] memory) {\r\n        return reports;\r\n    }\r\n}",
  "sourcePath": "C:\\Users\\20109\\OneDrive\\Desktop\\projects\\FCAi\\graduation\\try\\image - Copy\\contracts\\Blood.sol",
  "compiler": {
    "name": "solc",
    "version": "0.8.0+commit.c7dfd78e.Emscripten.clang"
  },
  "schemaVersion": "3.4.16",
  "updatedAt": "2024-07-08T14:23:39.692Z",
  "networkType": "ethereum",
  "devdoc": {
    "kind": "dev",
    "methods": {},
    "version": 1
  },
  "userdoc": {
    "kind": "user",
    "methods": {},
    "version": 1
  }
}