{
  "contractName": "Doctor",
  "abi": [
    {
      "anonymous": false,
      "inputs": [
        {
          "indexed": false,
          "internalType": "uint256",
          "name": "nationalId",
          "type": "uint256"
        },
        {
          "indexed": false,
          "internalType": "string",
          "name": "name",
          "type": "string"
        },
        {
          "indexed": false,
          "internalType": "string",
          "name": "email",
          "type": "string"
        }
      ],
      "name": "DoctorAdded",
      "type": "event"
    },
    {
      "inputs": [],
      "name": "doctorCount",
      "outputs": [
        {
          "internalType": "uint256",
          "name": "",
          "type": "uint256"
        }
      ],
      "stateMutability": "view",
      "type": "function",
      "constant": true
    },
    {
      "inputs": [
        {
          "internalType": "uint256",
          "name": "",
          "type": "uint256"
        }
      ],
      "name": "doctors",
      "outputs": [
        {
          "internalType": "uint256",
          "name": "nationalId",
          "type": "uint256"
        },
        {
          "internalType": "string",
          "name": "name",
          "type": "string"
        },
        {
          "internalType": "string",
          "name": "dateOfBirth",
          "type": "string"
        },
        {
          "internalType": "string",
          "name": "email",
          "type": "string"
        },
        {
          "internalType": "string",
          "name": "password",
          "type": "string"
        },
        {
          "internalType": "string",
          "name": "certificateHash",
          "type": "string"
        }
      ],
      "stateMutability": "view",
      "type": "function",
      "constant": true
    },
    {
      "inputs": [
        {
          "internalType": "uint256",
          "name": "_nationalId",
          "type": "uint256"
        },
        {
          "internalType": "string",
          "name": "_name",
          "type": "string"
        },
        {
          "internalType": "string",
          "name": "_dateOfBirth",
          "type": "string"
        },
        {
          "internalType": "string",
          "name": "_email",
          "type": "string"
        },
        {
          "internalType": "string",
          "name": "_password",
          "type": "string"
        },
        {
          "internalType": "string",
          "name": "_certificateHash",
          "type": "string"
        }
      ],
      "name": "addDoctor",
      "outputs": [],
      "stateMutability": "nonpayable",
      "type": "function"
    },
    {
      "inputs": [
        {
          "internalType": "uint256",
          "name": "_nationalId",
          "type": "uint256"
        }
      ],
      "name": "getDoctor",
      "outputs": [
        {
          "internalType": "uint256",
          "name": "",
          "type": "uint256"
        },
        {
          "internalType": "string",
          "name": "",
          "type": "string"
        },
        {
          "internalType": "string",
          "name": "",
          "type": "string"
        },
        {
          "internalType": "string",
          "name": "",
          "type": "string"
        },
        {
          "internalType": "string",
          "name": "",
          "type": "string"
        },
        {
          "internalType": "string",
          "name": "",
          "type": "string"
        }
      ],
      "stateMutability": "view",
      "type": "function",
      "constant": true
    }
  ],
  "bytecode": "0x608060405234801561001057600080fd5b50610bb3806100206000396000f3fe608060405234801561001057600080fd5b506004361061004c5760003560e01c806369b0a72d146100515780636efb1b841461007f57806378522bc414610092578063a0ae6059146100a7575b600080fd5b61006461005f36600461091c565b6100bc565b60405161007696959493929190610a91565b60405180910390f35b61006461008d36600461091c565b6103fc565b61009a6106d9565b6040516100769190610a53565b6100ba6100b5366004610934565b6106df565b005b6000606080606080606060008060008981526020019081526020016000206040518060c0016040529081600082015481526020016001820180546100ff90610b05565b80601f016020809104026020016040519081016040528092919081815260200182805461012b90610b05565b80156101785780601f1061014d57610100808354040283529160200191610178565b820191906000526020600020905b81548152906001019060200180831161015b57829003601f168201915b5050505050815260200160028201805461019190610b05565b80601f01602080910402602001604051908101604052809291908181526020018280546101bd90610b05565b801561020a5780601f106101df5761010080835404028352916020019161020a565b820191906000526020600020905b8154815290600101906020018083116101ed57829003601f168201915b5050505050815260200160038201805461022390610b05565b80601f016020809104026020016040519081016040528092919081815260200182805461024f90610b05565b801561029c5780601f106102715761010080835404028352916020019161029c565b820191906000526020600020905b81548152906001019060200180831161027f57829003601f168201915b505050505081526020016004820180546102b590610b05565b80601f01602080910402602001604051908101604052809291908181526020018280546102e190610b05565b801561032e5780601f106103035761010080835404028352916020019161032e565b820191906000526020600020905b81548152906001019060200180831161031157829003601f168201915b5050505050815260200160058201805461034790610b05565b80601f016020809104026020016040519081016040528092919081815260200182805461037390610b05565b80156103c05780601f10610395576101008083540402835291602001916103c0565b820191906000526020600020905b8154815290600101906020018083116103a357829003601f168201915b5050509190925250508151602083015160408401516060850151608086015160a090960151939e929d50909b5099509297509550909350505050565b6000602081905290815260409020805460018201805491929161041e90610b05565b80601f016020809104026020016040519081016040528092919081815260200182805461044a90610b05565b80156104975780601f1061046c57610100808354040283529160200191610497565b820191906000526020600020905b81548152906001019060200180831161047a57829003601f168201915b5050505050908060020180546104ac90610b05565b80601f01602080910402602001604051908101604052809291908181526020018280546104d890610b05565b80156105255780601f106104fa57610100808354040283529160200191610525565b820191906000526020600020905b81548152906001019060200180831161050857829003601f168201915b50505050509080600301805461053a90610b05565b80601f016020809104026020016040519081016040528092919081815260200182805461056690610b05565b80156105b35780601f10610588576101008083540402835291602001916105b3565b820191906000526020600020905b81548152906001019060200180831161059657829003601f168201915b5050505050908060040180546105c890610b05565b80601f01602080910402602001604051908101604052809291908181526020018280546105f490610b05565b80156106415780601f1061061657610100808354040283529160200191610641565b820191906000526020600020905b81548152906001019060200180831161062457829003601f168201915b50505050509080600501805461065690610b05565b80601f016020809104026020016040519081016040528092919081815260200182805461068290610b05565b80156106cf5780601f106106a4576101008083540402835291602001916106cf565b820191906000526020600020905b8154815290600101906020018083116106b257829003601f168201915b5050505050905086565b60015481565b600180549060006106ef83610b40565b90915550506040805160c0810182528781526020808201888152828401889052606083018790526080830186905260a0830185905260008a815280835293909320825181559251805192939261074b9260018501920190610802565b5060408201518051610767916002840191602090910190610802565b5060608201518051610783916003840191602090910190610802565b506080820151805161079f916004840191602090910190610802565b5060a082015180516107bb916005840191602090910190610802565b509050507f9b2b6a6c770405d80eab4300682f7deab2d34c7e49d9c04f7b8f4d780a2b68068686856040516107f293929190610a5c565b60405180910390a1505050505050565b82805461080e90610b05565b90600052602060002090601f0160209004810192826108305760008555610876565b82601f1061084957805160ff1916838001178555610876565b82800160010185558215610876579182015b8281111561087657825182559160200191906001019061085b565b50610882929150610886565b5090565b5b808211156108825760008155600101610887565b600082601f8301126108ab578081fd5b813567ffffffffffffffff808211156108c6576108c6610b67565b604051601f8301601f1916810160200182811182821017156108ea576108ea610b67565b604052828152848301602001861015610901578384fd5b82602086016020830137918201602001929092529392505050565b60006020828403121561092d578081fd5b5035919050565b60008060008060008060c0878903121561094c578182fd5b86359550602087013567ffffffffffffffff8082111561096a578384fd5b6109768a838b0161089b565b9650604089013591508082111561098b578384fd5b6109978a838b0161089b565b955060608901359150808211156109ac578384fd5b6109b88a838b0161089b565b945060808901359150808211156109cd578384fd5b6109d98a838b0161089b565b935060a08901359150808211156109ee578283fd5b506109fb89828a0161089b565b9150509295509295509295565b60008151808452815b81811015610a2d57602081850181015186830182015201610a11565b81811115610a3e5782602083870101525b50601f01601f19169290920160200192915050565b90815260200190565b600084825260606020830152610a756060830185610a08565b8281036040840152610a878185610a08565b9695505050505050565b600087825260c06020830152610aaa60c0830188610a08565b8281036040840152610abc8188610a08565b90508281036060840152610ad08187610a08565b90508281036080840152610ae48186610a08565b905082810360a0840152610af88185610a08565b9998505050505050505050565b600281046001821680610b1957607f821691505b60208210811415610b3a57634e487b7160e01b600052602260045260246000fd5b50919050565b6000600019821415610b6057634e487b7160e01b81526011600452602481fd5b5060010190565b634e487b7160e01b600052604160045260246000fdfea264697066735822122029199d432bb7b267c6c4326ba25e2d2ae2c91897ee11a2a8223cceb550eddb1364736f6c63430008000033",
  "immutableReferences": {},
  "source": "// SPDX-License-Identifier: MIT\npragma solidity ^0.8.0;\n\ncontract Doctor {\n    struct DoctorRecord {\n        uint256 nationalId;\n        string name;\n        string dateOfBirth;\n        string email;\n        string password;\n        string certificateHash;\n    }\n\n    mapping(uint256 => DoctorRecord) public doctors;\n    uint256 public doctorCount;\n\n    event DoctorAdded(uint256 nationalId, string name, string email);\n\n    function addDoctor(\n        uint256 _nationalId,\n        string memory _name,\n        string memory _dateOfBirth,\n        string memory _email,\n        string memory _password,\n        string memory _certificateHash\n    ) public {\n        doctorCount++;\n        doctors[_nationalId] = DoctorRecord(_nationalId, _name, _dateOfBirth, _email, _password, _certificateHash);\n        emit DoctorAdded(_nationalId, _name, _email);\n    }\n\n    function getDoctor(uint256 _nationalId) public view returns (\n        uint256,\n        string memory,\n        string memory,\n        string memory,\n        string memory,\n        string memory\n    ) {\n        DoctorRecord memory doctor = doctors[_nationalId];\n        return (doctor.nationalId, doctor.name, doctor.dateOfBirth, doctor.email, doctor.password, doctor.certificateHash);\n    }\n}",
  "sourcePath": "C:\\Users\\20109\\OneDrive\\Desktop\\projects\\FCAi\\graduation\\try\\image - Copy\\contracts\\Doctor.sol",
  "compiler": {
    "name": "solc",
    "version": "0.8.0+commit.c7dfd78e.Emscripten.clang"
  },
  "schemaVersion": "3.4.16",
  "updatedAt": "2024-07-08T14:23:38.165Z",
  "networkType": "ethereum",
  "devdoc": {
    "kind": "dev",
    "methods": {},
    "version": 1
  },
  "userdoc": {
    "kind": "user",
    "methods": {},
    "version": 1
  }
}