{
  "contractName": "Image",
  "abi": [
    {
      "inputs": [],
      "name": "lastUploadedImagePath",
      "outputs": [
        {
          "internalType": "string",
          "name": "",
          "type": "string"
        }
      ],
      "stateMutability": "view",
      "type": "function"
    },
    {
      "inputs": [
        {
          "internalType": "string",
          "name": "imagePath",
          "type": "string"
        }
      ],
      "name": "uploadImage",
      "outputs": [],
      "stateMutability": "nonpayable",
      "type": "function"
    },
    {
      "inputs": [],
      "name": "getLastUploadedImagePath",
      "outputs": [
        {
          "internalType": "string",
          "name": "",
          "type": "string"
        }
      ],
      "stateMutability": "view",
      "type": "function"
    }
  ],
  "bytecode": "0x608060405234801561001057600080fd5b506103cc806100206000396000f3fe608060405234801561001057600080fd5b50600436106100415760003560e01c8063d2cd734e14610046578063e740c8a014610064578063f56a007c14610079575b600080fd5b61004e610081565b60405161005b91906102f2565b60405180910390f35b610077610072366004610251565b610113565b005b61004e61012a565b60606000805461009090610345565b80601f01602080910402602001604051908101604052809291908181526020018280546100bc90610345565b80156101095780601f106100de57610100808354040283529160200191610109565b820191906000526020600020905b8154815290600101906020018083116100ec57829003601f168201915b5050505050905090565b80516101269060009060208401906101b8565b5050565b6000805461013790610345565b80601f016020809104026020016040519081016040528092919081815260200182805461016390610345565b80156101b05780601f10610185576101008083540402835291602001916101b0565b820191906000526020600020905b81548152906001019060200180831161019357829003601f168201915b505050505081565b8280546101c490610345565b90600052602060002090601f0160209004810192826101e6576000855561022c565b82601f106101ff57805160ff191683800117855561022c565b8280016001018555821561022c579182015b8281111561022c578251825591602001919060010190610211565b5061023892915061023c565b5090565b5b80821115610238576000815560010161023d565b60006020808385031215610263578182fd5b823567ffffffffffffffff8082111561027a578384fd5b818501915085601f83011261028d578384fd5b81358181111561029f5761029f610380565b604051601f8201601f19168101850183811182821017156102c2576102c2610380565b60405281815283820185018810156102d8578586fd5b818585018683013790810190930193909352509392505050565b6000602080835283518082850152825b8181101561031e57858101830151858201604001528201610302565b8181111561032f5783604083870101525b50601f01601f1916929092016040019392505050565b60028104600182168061035957607f821691505b6020821081141561037a57634e487b7160e01b600052602260045260246000fd5b50919050565b634e487b7160e01b600052604160045260246000fdfea2646970667358221220771d44e7220469db039ea45c1f9feb1e9d928e840539bdf665ecb4c81d1fe4b564736f6c63430008000033",
  "immutableReferences": {},
  "source": "// SPDX-License-Identifier: MIT\r\npragma solidity ^0.8.0;\r\n\r\ncontract Image {\r\n    string public lastUploadedImagePath;\r\n\r\n    function uploadImage(string memory imagePath) public {\r\n        lastUploadedImagePath = imagePath;\r\n    }\r\n\r\n    function getLastUploadedImagePath() public view returns (string memory) {\r\n        return lastUploadedImagePath;\r\n    }\r\n}\r\n",
  "sourcePath": "C:\\Users\\20109\\OneDrive\\Desktop\\projects\\FCAi\\graduation\\try\\image - Copy\\contracts\\Image.sol",
  "compiler": {
    "name": "solc",
    "version": "0.8.0+commit.c7dfd78e.Emscripten.clang"
  },
  "schemaVersion": "3.4.16",
  "updatedAt": "2024-07-08T06:50:59.570Z",
  "devdoc": {
    "kind": "dev",
    "methods": {},
    "version": 1
  },
  "userdoc": {
    "kind": "user",
    "methods": {},
    "version": 1
  }
}