{
  "contractName": "ImageHashStore",
  "abi": [
    {
      "inputs": [],
      "name": "imageCount",
      "outputs": [
        {
          "internalType": "uint256",
          "name": "",
          "type": "uint256"
        }
      ],
      "stateMutability": "view",
      "type": "function"
    },
    {
      "inputs": [
        {
          "internalType": "uint256",
          "name": "",
          "type": "uint256"
        }
      ],
      "name": "imageHashes",
      "outputs": [
        {
          "internalType": "string",
          "name": "",
          "type": "string"
        }
      ],
      "stateMutability": "view",
      "type": "function"
    },
    {
      "inputs": [
        {
          "internalType": "string",
          "name": "hash",
          "type": "string"
        }
      ],
      "name": "storeImageHash",
      "outputs": [],
      "stateMutability": "nonpayable",
      "type": "function"
    },
    {
      "inputs": [
        {
          "internalType": "uint256",
          "name": "index",
          "type": "uint256"
        }
      ],
      "name": "getImageHash",
      "outputs": [
        {
          "internalType": "string",
          "name": "",
          "type": "string"
        }
      ],
      "stateMutability": "view",
      "type": "function"
    }
  ],
  "bytecode": "0x6080604052600060015534801561001557600080fd5b5061048e806100256000396000f3fe608060405234801561001057600080fd5b506004361061004c5760003560e01c8063628344621461005157806385e927bf1461007a57806392053b631461008f578063a8d4ab6c146100a4575b600080fd5b61006461005f36600461036c565b6100b7565b6040516100719190610384565b60405180910390f35b61008d6100883660046102cb565b610159565b005b610097610192565b60405161007191906103d7565b6100646100b236600461036c565b610198565b60008181526020819052604090208054606091906100d4906103e0565b80601f0160208091040260200160405190810160405280929190818152602001828054610100906103e0565b801561014d5780601f106101225761010080835404028352916020019161014d565b820191906000526020600020905b81548152906001019060200180831161013057829003601f168201915b50505050509050919050565b600154600090815260208181526040909120825161017992840190610232565b506001805490600061018a8361041b565b919050555050565b60015481565b600060208190529081526040902080546101b1906103e0565b80601f01602080910402602001604051908101604052809291908181526020018280546101dd906103e0565b801561022a5780601f106101ff5761010080835404028352916020019161022a565b820191906000526020600020905b81548152906001019060200180831161020d57829003601f168201915b505050505081565b82805461023e906103e0565b90600052602060002090601f01602090048101928261026057600085556102a6565b82601f1061027957805160ff19168380011785556102a6565b828001600101855582156102a6579182015b828111156102a657825182559160200191906001019061028b565b506102b29291506102b6565b5090565b5b808211156102b257600081556001016102b7565b600060208083850312156102dd578182fd5b823567ffffffffffffffff808211156102f4578384fd5b818501915085601f830112610307578384fd5b81358181111561031957610319610442565b604051601f8201601f191681018501838111828210171561033c5761033c610442565b6040528181528382018501881015610352578586fd5b818585018683013790810190930193909352509392505050565b60006020828403121561037d578081fd5b5035919050565b6000602080835283518082850152825b818110156103b057858101830151858201604001528201610394565b818111156103c15783604083870101525b50601f01601f1916929092016040019392505050565b90815260200190565b6002810460018216806103f457607f821691505b6020821081141561041557634e487b7160e01b600052602260045260246000fd5b50919050565b600060001982141561043b57634e487b7160e01b81526011600452602481fd5b5060010190565b634e487b7160e01b600052604160045260246000fdfea2646970667358221220cbfb1b1ddb9914289ce6d7b41b5071962cc9a0e27ee2d8637ef3a0b44f8d87f064736f6c63430008000033",
  "immutableReferences": {},
  "source": "// SPDX-License-Identifier: MIT\r\npragma solidity ^0.8.0;\r\n\r\ncontract ImageHashStore {\r\n    mapping(uint256 => string) public imageHashes;\r\n    uint256 public imageCount = 0;\r\n\r\n    function storeImageHash(string memory hash) public {\r\n        imageHashes[imageCount] = hash;\r\n        imageCount++;\r\n    }\r\n\r\n    function getImageHash(uint256 index) public view returns (string memory) {\r\n        return imageHashes[index];\r\n    }\r\n}\r\n",
  "sourcePath": "C:\\Users\\20109\\OneDrive\\Desktop\\projects\\FCAi\\graduation\\try\\image - Copy\\contracts\\Image.sol",
  "compiler": {
    "name": "solc",
    "version": "0.8.0+commit.c7dfd78e.Emscripten.clang"
  },
  "schemaVersion": "3.4.16",
  "updatedAt": "2024-06-28T17:33:59.534Z",
  "devdoc": {
    "kind": "dev",
    "methods": {},
    "version": 1
  },
  "userdoc": {
    "kind": "user",
    "methods": {},
    "version": 1
  }
}