{
  "contractName": "Labimg",
  "abi": [
    {
      "anonymous": false,
      "inputs": [
        {
          "indexed": false,
          "internalType": "string",
          "name": "img",
          "type": "string"
        }
      ],
      "name": "ImageAdded",
      "type": "event"
    },
    {
      "inputs": [
        {
          "internalType": "uint256",
          "name": "",
          "type": "uint256"
        }
      ],
      "name": "allImages",
      "outputs": [
        {
          "internalType": "string",
          "name": "",
          "type": "string"
        }
      ],
      "stateMutability": "view",
      "type": "function"
    },
    {
      "inputs": [
        {
          "internalType": "string",
          "name": "_img",
          "type": "string"
        }
      ],
      "name": "addImage",
      "outputs": [],
      "stateMutability": "nonpayable",
      "type": "function"
    },
    {
      "inputs": [],
      "name": "getAllImages",
      "outputs": [
        {
          "internalType": "string[]",
          "name": "",
          "type": "string[]"
        }
      ],
      "stateMutability": "view",
      "type": "function"
    }
  ],
  "bytecode": "0x608060405234801561001057600080fd5b50610537806100206000396000f3fe608060405234801561001057600080fd5b50600436106100415760003560e01c8063166f1779146100465780634c5bab4f1461005b5780637b7284fc14610084575b600080fd5b610059610054366004610332565b610099565b005b61006e6100693660046103d3565b610114565b60405161007b9190610496565b60405180910390f35b61008c6101c0565b60405161007b9190610436565b6000805460018101825590805281516100d9917f290decd9548b62a8d60345a988386fc84ba6bc95484008f6362f93160ef3e56301906020840190610299565b507f185bef9480317fa50b92f188bcc6ea3841e9b351ed1c973d1076c8b3d1931c58816040516101099190610496565b60405180910390a150565b6000818154811061012457600080fd5b90600052602060002001600091509050805461013f906104b0565b80601f016020809104026020016040519081016040528092919081815260200182805461016b906104b0565b80156101b85780601f1061018d576101008083540402835291602001916101b8565b820191906000526020600020905b81548152906001019060200180831161019b57829003601f168201915b505050505081565b60606000805480602002602001604051908101604052809291908181526020016000905b82821015610290578382906000526020600020018054610203906104b0565b80601f016020809104026020016040519081016040528092919081815260200182805461022f906104b0565b801561027c5780601f106102515761010080835404028352916020019161027c565b820191906000526020600020905b81548152906001019060200180831161025f57829003601f168201915b5050505050815260200190600101906101e4565b50505050905090565b8280546102a5906104b0565b90600052602060002090601f0160209004810192826102c7576000855561030d565b82601f106102e057805160ff191683800117855561030d565b8280016001018555821561030d579182015b8281111561030d5782518255916020019190600101906102f2565b5061031992915061031d565b5090565b5b80821115610319576000815560010161031e565b60006020808385031215610344578182fd5b823567ffffffffffffffff8082111561035b578384fd5b818501915085601f83011261036e578384fd5b813581811115610380576103806104eb565b604051601f8201601f19168101850183811182821017156103a3576103a36104eb565b60405281815283820185018810156103b9578586fd5b818585018683013790810190930193909352509392505050565b6000602082840312156103e4578081fd5b5035919050565b60008151808452815b81811015610410576020818501810151868301820152016103f4565b818111156104215782602083870101525b50601f01601f19169290920160200192915050565b6000602080830181845280855180835260408601915060408482028701019250838701855b8281101561048957603f198886030184526104778583516103eb565b9450928501929085019060010161045b565b5092979650505050505050565b6000602082526104a960208301846103eb565b9392505050565b6002810460018216806104c457607f821691505b602082108114156104e557634e487b7160e01b600052602260045260246000fd5b50919050565b634e487b7160e01b600052604160045260246000fdfea2646970667358221220a234ea5ff5eea1628987ac4848e926e360ae24f5861777c7e53aa3c8c1444bcb64736f6c63430008000033",
  "immutableReferences": {},
  "source": "// SPDX-License-Identifier: MIT\npragma solidity ^0.8.0;\n\ncontract Labimg {\n    string[] public allImages;\n\n    event ImageAdded(string img);\n\n    function addImage(string memory _img) public {\n        allImages.push(_img);\n        emit ImageAdded(_img);\n    }\n\n    function getAllImages() public view returns (string[] memory) {\n        return allImages;\n    }\n}\n",
  "sourcePath": "C:\\Users\\20109\\OneDrive\\Desktop\\projects\\FCAi\\graduation\\try\\image - Copy\\contracts\\Labimg.sol",
  "compiler": {
    "name": "solc",
    "version": "0.8.0+commit.c7dfd78e.Emscripten.clang"
  },
  "schemaVersion": "3.4.16",
  "updatedAt": "2024-07-08T06:50:59.575Z",
  "devdoc": {
    "kind": "dev",
    "methods": {},
    "version": 1
  },
  "userdoc": {
    "kind": "user",
    "methods": {},
    "version": 1
  }
}