{
  "contractName": "Laboratory",
  "abi": [
    {
      "anonymous": false,
      "inputs": [
        {
          "indexed": false,
          "internalType": "string",
          "name": "name",
          "type": "string"
        },
        {
          "indexed": false,
          "internalType": "string",
          "name": "imageHash",
          "type": "string"
        },
        {
          "indexed": false,
          "internalType": "string",
          "name": "email",
          "type": "string"
        },
        {
          "indexed": false,
          "internalType": "string",
          "name": "password",
          "type": "string"
        }
      ],
      "name": "LaboratoryAdded",
      "type": "event"
    },
    {
      "inputs": [
        {
          "internalType": "uint256",
          "name": "",
          "type": "uint256"
        }
      ],
      "name": "laboratories",
      "outputs": [
        {
          "internalType": "string",
          "name": "name",
          "type": "string"
        },
        {
          "internalType": "string",
          "name": "imageHash",
          "type": "string"
        },
        {
          "internalType": "string",
          "name": "email",
          "type": "string"
        },
        {
          "internalType": "string",
          "name": "password",
          "type": "string"
        }
      ],
      "stateMutability": "view",
      "type": "function",
      "constant": true
    },
    {
      "inputs": [],
      "name": "laboratoryCount",
      "outputs": [
        {
          "internalType": "uint256",
          "name": "",
          "type": "uint256"
        }
      ],
      "stateMutability": "view",
      "type": "function",
      "constant": true
    },
    {
      "inputs": [
        {
          "internalType": "string",
          "name": "_name",
          "type": "string"
        },
        {
          "internalType": "string",
          "name": "_imageHash",
          "type": "string"
        },
        {
          "internalType": "string",
          "name": "_email",
          "type": "string"
        },
        {
          "internalType": "string",
          "name": "_password",
          "type": "string"
        }
      ],
      "name": "addLaboratory",
      "outputs": [],
      "stateMutability": "nonpayable",
      "type": "function"
    },
    {
      "inputs": [
        {
          "internalType": "uint256",
          "name": "_index",
          "type": "uint256"
        }
      ],
      "name": "getLaboratory",
      "outputs": [
        {
          "internalType": "string",
          "name": "",
          "type": "string"
        },
        {
          "internalType": "string",
          "name": "",
          "type": "string"
        },
        {
          "internalType": "string",
          "name": "",
          "type": "string"
        },
        {
          "internalType": "string",
          "name": "",
          "type": "string"
        }
      ],
      "stateMutability": "view",
      "type": "function",
      "constant": true
    }
  ],
  "bytecode": "0x608060405234801561001057600080fd5b506109c0806100206000396000f3fe608060405234801561001057600080fd5b506004361061004c5760003560e01c8063945c0c4d146100515780639cad5d4c1461006f578063c406b59e14610092578063fd7205dd146100a7575b600080fd5b6100596100ba565b6040516100669190610909565b60405180910390f35b61008261007d36600461084e565b6100c0565b60405161006694939291906108b1565b6100a56100a03660046107a6565b610308565b005b6100826100b536600461084e565b6103fb565b60015481565b6000602081905290815260409020805481906100db90610912565b80601f016020809104026020016040519081016040528092919081815260200182805461010790610912565b80156101545780601f1061012957610100808354040283529160200191610154565b820191906000526020600020905b81548152906001019060200180831161013757829003601f168201915b50505050509080600101805461016990610912565b80601f016020809104026020016040519081016040528092919081815260200182805461019590610912565b80156101e25780601f106101b7576101008083540402835291602001916101e2565b820191906000526020600020905b8154815290600101906020018083116101c557829003601f168201915b5050505050908060020180546101f790610912565b80601f016020809104026020016040519081016040528092919081815260200182805461022390610912565b80156102705780601f1061024557610100808354040283529160200191610270565b820191906000526020600020905b81548152906001019060200180831161025357829003601f168201915b50505050509080600301805461028590610912565b80601f01602080910402602001604051908101604052809291908181526020018280546102b190610912565b80156102fe5780601f106102d3576101008083540402835291602001916102fe565b820191906000526020600020905b8154815290600101906020018083116102e157829003601f168201915b5050505050905084565b600180549060006103188361094d565b9091555050604080516080810182528581526020808201869052818301859052606082018490526001546000908152808252929092208151805192939192610363928492019061068c565b50602082810151805161037c926001850192019061068c565b506040820151805161039891600284019160209091019061068c565b50606082015180516103b491600384019160209091019061068c565b509050507f58bda76112266084cd21e55a0a3625999c990d6b137d1d20a09345b877f4150f848484846040516103ed94939291906108b1565b60405180910390a150505050565b606080606080600080600087815260200190815260200160002060405180608001604052908160008201805461043090610912565b80601f016020809104026020016040519081016040528092919081815260200182805461045c90610912565b80156104a95780601f1061047e576101008083540402835291602001916104a9565b820191906000526020600020905b81548152906001019060200180831161048c57829003601f168201915b505050505081526020016001820180546104c290610912565b80601f01602080910402602001604051908101604052809291908181526020018280546104ee90610912565b801561053b5780601f106105105761010080835404028352916020019161053b565b820191906000526020600020905b81548152906001019060200180831161051e57829003601f168201915b5050505050815260200160028201805461055490610912565b80601f016020809104026020016040519081016040528092919081815260200182805461058090610912565b80156105cd5780601f106105a2576101008083540402835291602001916105cd565b820191906000526020600020905b8154815290600101906020018083116105b057829003601f168201915b505050505081526020016003820180546105e690610912565b80601f016020809104026020016040519081016040528092919081815260200182805461061290610912565b801561065f5780601f106106345761010080835404028352916020019161065f565b820191906000526020600020905b81548152906001019060200180831161064257829003601f168201915b505050919092525050815160208301516040840151606090940151919a9099509297509550909350505050565b82805461069890610912565b90600052602060002090601f0160209004810192826106ba5760008555610700565b82601f106106d357805160ff1916838001178555610700565b82800160010185558215610700579182015b828111156107005782518255916020019190600101906106e5565b5061070c929150610710565b5090565b5b8082111561070c5760008155600101610711565b600082601f830112610735578081fd5b813567ffffffffffffffff8082111561075057610750610974565b604051601f8301601f19168101602001828111828210171561077457610774610974565b60405282815284830160200186101561078b578384fd5b82602086016020830137918201602001929092529392505050565b600080600080608085870312156107bb578384fd5b843567ffffffffffffffff808211156107d2578586fd5b6107de88838901610725565b955060208701359150808211156107f3578485fd5b6107ff88838901610725565b94506040870135915080821115610814578384fd5b61082088838901610725565b93506060870135915080821115610835578283fd5b5061084287828801610725565b91505092959194509250565b60006020828403121561085f578081fd5b5035919050565b60008151808452815b8181101561088b5760208185018101518683018201520161086f565b8181111561089c5782602083870101525b50601f01601f19169290920160200192915050565b6000608082526108c46080830187610866565b82810360208401526108d68187610866565b905082810360408401526108ea8186610866565b905082810360608401526108fe8185610866565b979650505050505050565b90815260200190565b60028104600182168061092657607f821691505b6020821081141561094757634e487b7160e01b600052602260045260246000fd5b50919050565b600060001982141561096d57634e487b7160e01b81526011600452602481fd5b5060010190565b634e487b7160e01b600052604160045260246000fdfea264697066735822122096f616def65a3de856f1d4cd322dff750ceb6b859f70660b8f07d85788db187264736f6c63430008000033",
  "immutableReferences": {},
  "source": "// SPDX-License-Identifier: MIT\npragma solidity ^0.8.0;\n\ncontract Laboratory {\n    struct LaboratoryRecord {\n        string name;\n        string imageHash;\n        string email;\n        string password;\n    }\n\n    mapping(uint256 => LaboratoryRecord) public laboratories;\n    uint256 public laboratoryCount;\n\n    event LaboratoryAdded(string name, string imageHash, string email, string password);\n\n    function addLaboratory(\n        string memory _name,\n        string memory _imageHash,\n        string memory _email,\n        string memory _password\n    ) public {\n        laboratoryCount++;\n        laboratories[laboratoryCount] = LaboratoryRecord(_name, _imageHash, _email, _password);\n        emit LaboratoryAdded(_name, _imageHash, _email, _password);\n    }\n\n    function getLaboratory(uint256 _index) public view returns (\n        string memory,\n        string memory,\n        string memory,\n        string memory\n    ) {\n        LaboratoryRecord memory laboratory = laboratories[_index];\n        return (laboratory.name, laboratory.imageHash, laboratory.email, laboratory.password);\n    }\n}",
  "sourcePath": "C:\\Users\\20109\\OneDrive\\Desktop\\projects\\FCAi\\graduation\\try\\image - Copy\\contracts\\Laboratory.sol",
  "compiler": {
    "name": "solc",
    "version": "0.8.0+commit.c7dfd78e.Emscripten.clang"
  },
  "schemaVersion": "3.4.16",
  "updatedAt": "2024-07-08T14:23:37.583Z",
  "networkType": "ethereum",
  "devdoc": {
    "kind": "dev",
    "methods": {},
    "version": 1
  },
  "userdoc": {
    "kind": "user",
    "methods": {},
    "version": 1
  }
}