{
  "contractName": "Lipid",
  "abi": [
    {
      "anonymous": false,
      "inputs": [
        {
          "indexed": true,
          "internalType": "uint256",
          "name": "nationalId",
          "type": "uint256"
        },
        {
          "indexed": false,
          "internalType": "uint256",
          "name": "labId",
          "type": "uint256"
        },
        {
          "indexed": false,
          "internalType": "string",
          "name": "imageUrl",
          "type": "string"
        },
        {
          "indexed": false,
          "internalType": "string",
          "name": "status",
          "type": "string"
        },
        {
          "indexed": false,
          "internalType": "uint256",
          "name": "cholesterolTotal",
          "type": "uint256"
        },
        {
          "indexed": false,
          "internalType": "uint256",
          "name": "triglycerides",
          "type": "uint256"
        },
        {
          "indexed": false,
          "internalType": "uint256",
          "name": "hdlCholesterol",
          "type": "uint256"
        },
        {
          "indexed": false,
          "internalType": "uint256",
          "name": "ldlCholesterol",
          "type": "uint256"
        },
        {
          "indexed": false,
          "internalType": "string",
          "name": "date",
          "type": "string"
        }
      ],
      "name": "ReportAdded",
      "type": "event"
    },
    {
      "inputs": [
        {
          "internalType": "uint256",
          "name": "_nationalId",
          "type": "uint256"
        },
        {
          "internalType": "uint256",
          "name": "_labId",
          "type": "uint256"
        },
        {
          "internalType": "string",
          "name": "_imageUrl",
          "type": "string"
        },
        {
          "internalType": "string",
          "name": "_status",
          "type": "string"
        },
        {
          "internalType": "uint256",
          "name": "_cholesterolTotal",
          "type": "uint256"
        },
        {
          "internalType": "uint256",
          "name": "_triglycerides",
          "type": "uint256"
        },
        {
          "internalType": "uint256",
          "name": "_hdlCholesterol",
          "type": "uint256"
        },
        {
          "internalType": "uint256",
          "name": "_ldlCholesterol",
          "type": "uint256"
        },
        {
          "internalType": "string",
          "name": "_date",
          "type": "string"
        }
      ],
      "name": "addReport",
      "outputs": [],
      "stateMutability": "nonpayable",
      "type": "function"
    },
    {
      "inputs": [
        {
          "internalType": "uint256",
          "name": "_nationalId",
          "type": "uint256"
        }
      ],
      "name": "getReportsByNationalId",
      "outputs": [
        {
          "components": [
            {
              "internalType": "uint256",
              "name": "nationalId",
              "type": "uint256"
            },
            {
              "internalType": "uint256",
              "name": "labId",
              "type": "uint256"
            },
            {
              "internalType": "string",
              "name": "imageUrl",
              "type": "string"
            },
            {
              "internalType": "string",
              "name": "status",
              "type": "string"
            },
            {
              "internalType": "uint256",
              "name": "cholesterolTotal",
              "type": "uint256"
            },
            {
              "internalType": "uint256",
              "name": "triglycerides",
              "type": "uint256"
            },
            {
              "internalType": "uint256",
              "name": "hdlCholesterol",
              "type": "uint256"
            },
            {
              "internalType": "uint256",
              "name": "ldlCholesterol",
              "type": "uint256"
            },
            {
              "internalType": "string",
              "name": "date",
              "type": "string"
            }
          ],
          "internalType": "struct Lipid.LipidReport[]",
          "name": "",
          "type": "tuple[]"
        }
      ],
      "stateMutability": "view",
      "type": "function",
      "constant": true
    }
  ],
  "bytecode": "0x608060405234801561001057600080fd5b50610827806100206000396000f3fe608060405234801561001057600080fd5b50600436106100365760003560e01c8063e3afb9271461003b578063f204cac014610064575b600080fd5b61004e610049366004610535565b610079565b60405161005b9190610657565b60405180910390f35b61007761007236600461054d565b6102d5565b005b600081815260208181526040808320805482518185028101850190935280835260609492939192909184015b828210156102ca57838290600052602060002090600902016040518061012001604052908160008201548152602001600182015481526020016002820180546100ed906107a0565b80601f0160208091040260200160405190810160405280929190818152602001828054610119906107a0565b80156101665780601f1061013b57610100808354040283529160200191610166565b820191906000526020600020905b81548152906001019060200180831161014957829003601f168201915b5050505050815260200160038201805461017f906107a0565b80601f01602080910402602001604051908101604052809291908181526020018280546101ab906107a0565b80156101f85780601f106101cd576101008083540402835291602001916101f8565b820191906000526020600020905b8154815290600101906020018083116101db57829003601f168201915b5050505050815260200160048201548152602001600582015481526020016006820154815260200160078201548152602001600882018054610239906107a0565b80601f0160208091040260200160405190810160405280929190818152602001828054610265906107a0565b80156102b25780601f10610287576101008083540402835291602001916102b2565b820191906000526020600020905b81548152906001019060200180831161029557829003601f168201915b505050505081525050815260200190600101906100a5565b505050509050919050565b60408051610120810182528a815260208082018b81528284018b8152606084018b9052608084018a905260a0840189905260c0840188905260e08401879052610100840186905260008e815280845294852080546001818101835591875295849020855160099097020195865591519185019190915551805192938493909261036592600285019291019061041b565b506060820151805161038191600384019160209091019061041b565b506080820151600482015560a0820151600582015560c0820151600682015560e0820151600782015561010082015180516103c691600884019160209091019061041b565b505050897f36463c7ddb0218baaff2ff38dd4c6c0abbd264dbdd4c8304740cff58d4d24f278a8a8a8a8a8a8a8a604051610407989796959493929190610737565b60405180910390a250505050505050505050565b828054610427906107a0565b90600052602060002090601f016020900481019282610449576000855561048f565b82601f1061046257805160ff191683800117855561048f565b8280016001018555821561048f579182015b8281111561048f578251825591602001919060010190610474565b5061049b92915061049f565b5090565b5b8082111561049b57600081556001016104a0565b600082601f8301126104c4578081fd5b813567ffffffffffffffff808211156104df576104df6107db565b604051601f8301601f191681016020018281118282101715610503576105036107db565b60405282815284830160200186101561051a578384fd5b82602086016020830137918201602001929092529392505050565b600060208284031215610546578081fd5b5035919050565b60008060008060008060008060006101208a8c03121561056b578485fd5b8935985060208a0135975060408a013567ffffffffffffffff80821115610590578687fd5b61059c8d838e016104b4565b985060608c01359150808211156105b1578687fd5b6105bd8d838e016104b4565b975060808c0135965060a08c0135955060c08c0135945060e08c013593506101008c01359150808211156105ef578283fd5b506105fc8c828d016104b4565b9150509295985092959850929598565b60008151808452815b8181101561063157602081850181015186830182015201610615565b818111156106425782602083870101525b50601f01601f19169290920160200192915050565b60208082528251828201819052600091906040908185019080840286018301878501865b8381101561072957603f1989840301855281516101208151855288820151898601528782015181898701526106b28287018261060c565b915050606080830151868303828801526106cc838261060c565b6080858101519089015260a0808601519089015260c0808601519089015260e080860151908901526101009485015188820395890195909552925061071591508290508361060c565b96890196945050509086019060010161067b565b509098975050505050505050565b60006101008a83528060208401526107518184018b61060c565b90508281036040840152610765818a61060c565b90508760608401528660808401528560a08401528460c084015282810360e0840152610791818561060c565b9b9a5050505050505050505050565b6002810460018216806107b457607f821691505b602082108114156107d557634e487b7160e01b600052602260045260246000fd5b50919050565b634e487b7160e01b600052604160045260246000fdfea2646970667358221220ec9b9e40d3afd2e82a75391fb7c4e8bfc4ea830d8e4e16299b71dc8922c8e4ce64736f6c63430008000033",
  "immutableReferences": {},
  "source": "// SPDX-License-Identifier: MIT\npragma solidity ^0.8.0;\npragma experimental ABIEncoderV2;\n\ncontract Lipid {\n    struct LipidReport {\n        uint256 nationalId;\n        uint256 labId;\n        string imageUrl;\n        string status;\n        uint256 cholesterolTotal;\n        uint256 triglycerides;\n        uint256 hdlCholesterol;\n        uint256 ldlCholesterol;\n        string date;\n    }\n\n    mapping(uint256 => LipidReport[]) private lipidReports;\n\n    event ReportAdded(\n        uint256 indexed nationalId,\n        uint256 labId,\n        string imageUrl,\n        string status,\n        uint256 cholesterolTotal,\n        uint256 triglycerides,\n        uint256 hdlCholesterol,\n        uint256 ldlCholesterol,\n        string date\n    );\n\n    function addReport(\n        uint256 _nationalId,\n        uint256 _labId,\n        string memory _imageUrl,\n        string memory _status,\n        uint256 _cholesterolTotal,\n        uint256 _triglycerides,\n        uint256 _hdlCholesterol,\n        uint256 _ldlCholesterol,\n        string memory _date\n    ) public {\n        LipidReport memory newReport = LipidReport({\n            nationalId: _nationalId,\n            labId: _labId,\n            imageUrl: _imageUrl,\n            status: _status,\n            cholesterolTotal: _cholesterolTotal,\n            triglycerides: _triglycerides,\n            hdlCholesterol: _hdlCholesterol,\n            ldlCholesterol: _ldlCholesterol,\n            date: _date\n        });\n\n        lipidReports[_nationalId].push(newReport);\n\n        emit ReportAdded(\n            _nationalId,\n            _labId,\n            _imageUrl,\n            _status,\n            _cholesterolTotal,\n            _triglycerides,\n            _hdlCholesterol,\n            _ldlCholesterol,\n            _date\n        );\n    }\n\n    function getReportsByNationalId(uint256 _nationalId)\n        public\n        view\n        returns (LipidReport[] memory)\n    {\n        return lipidReports[_nationalId];\n    }\n}\n",
  "sourcePath": "C:\\Users\\20109\\OneDrive\\Desktop\\projects\\FCAi\\graduation\\try\\image - Copy\\contracts\\Lipid.sol",
  "compiler": {
    "name": "solc",
    "version": "0.8.0+commit.c7dfd78e.Emscripten.clang"
  },
  "schemaVersion": "3.4.16",
  "updatedAt": "2024-07-08T14:23:39.298Z",
  "networkType": "ethereum",
  "devdoc": {
    "kind": "dev",
    "methods": {},
    "version": 1
  },
  "userdoc": {
    "kind": "user",
    "methods": {},
    "version": 1
  }
}