{
  "contractName": "Medicine",
  "abi": [
    {
      "inputs": [],
      "name": "date",
      "outputs": [
        {
          "internalType": "uint256",
          "name": "",
          "type": "uint256"
        }
      ],
      "stateMutability": "view",
      "type": "function"
    },
    {
      "inputs": [],
      "name": "dose",
      "outputs": [
        {
          "internalType": "uint256",
          "name": "",
          "type": "uint256"
        }
      ],
      "stateMutability": "view",
      "type": "function"
    },
    {
      "inputs": [],
      "name": "medicineImage",
      "outputs": [
        {
          "internalType": "string",
          "name": "",
          "type": "string"
        }
      ],
      "stateMutability": "view",
      "type": "function"
    },
    {
      "inputs": [],
      "name": "name",
      "outputs": [
        {
          "internalType": "string",
          "name": "",
          "type": "string"
        }
      ],
      "stateMutability": "view",
      "type": "function"
    },
    {
      "inputs": [],
      "name": "numTimes",
      "outputs": [
        {
          "internalType": "uint256",
          "name": "",
          "type": "uint256"
        }
      ],
      "stateMutability": "view",
      "type": "function"
    },
    {
      "inputs": [
        {
          "internalType": "string",
          "name": "_name",
          "type": "string"
        }
      ],
      "name": "setName",
      "outputs": [],
      "stateMutability": "nonpayable",
      "type": "function"
    },
    {
      "inputs": [
        {
          "internalType": "string",
          "name": "_medicineImage",
          "type": "string"
        }
      ],
      "name": "setMedicineImage",
      "outputs": [],
      "stateMutability": "nonpayable",
      "type": "function"
    },
    {
      "inputs": [
        {
          "internalType": "uint256",
          "name": "_dose",
          "type": "uint256"
        }
      ],
      "name": "setDose",
      "outputs": [],
      "stateMutability": "nonpayable",
      "type": "function"
    },
    {
      "inputs": [
        {
          "internalType": "uint256",
          "name": "_numTimes",
          "type": "uint256"
        }
      ],
      "name": "setNumTimes",
      "outputs": [],
      "stateMutability": "nonpayable",
      "type": "function"
    },
    {
      "inputs": [
        {
          "internalType": "uint256",
          "name": "_date",
          "type": "uint256"
        }
      ],
      "name": "setDate",
      "outputs": [],
      "stateMutability": "nonpayable",
      "type": "function"
    }
  ],
  "bytecode": "0x608060405234801561001057600080fd5b5061046a806100206000396000f3fe608060405234801561001057600080fd5b506004361061009e5760003560e01c80638c42dbe8116100665780638c42dbe81461010657806398a057dc1461010e578063c47f002714610121578063d04e48f114610134578063df21201f146101475761009e565b806306fdde03146100a35780630d072b6c146100c1578063323046b1146100d6578063368e253f146100de5780637663b057146100f3575b600080fd5b6100ab61014f565b6040516100b89190610387565b60405180910390f35b6100c96101dd565b6040516100b891906103da565b6100c96101e3565b6100f16100ec36600461036f565b6101e9565b005b6100f161010136600461036f565b6101ee565b6100ab6101f3565b6100f161011c3660046102ce565b610200565b6100f161012f3660046102ce565b610217565b6100f161014236600461036f565b61022a565b6100c961022f565b6000805461015c906103e3565b80601f0160208091040260200160405190810160405280929190818152602001828054610188906103e3565b80156101d55780601f106101aa576101008083540402835291602001916101d5565b820191906000526020600020905b8154815290600101906020018083116101b857829003601f168201915b505050505081565b60035481565b60045481565b600355565b600255565b6001805461015c906103e3565b8051610213906001906020840190610235565b5050565b8051610213906000906020840190610235565b600455565b60025481565b828054610241906103e3565b90600052602060002090601f01602090048101928261026357600085556102a9565b82601f1061027c57805160ff19168380011785556102a9565b828001600101855582156102a9579182015b828111156102a957825182559160200191906001019061028e565b506102b59291506102b9565b5090565b5b808211156102b557600081556001016102ba565b600060208083850312156102e0578182fd5b823567ffffffffffffffff808211156102f7578384fd5b818501915085601f83011261030a578384fd5b81358181111561031c5761031c61041e565b604051601f8201601f191681018501838111828210171561033f5761033f61041e565b6040528181528382018501881015610355578586fd5b818585018683013790810190930193909352509392505050565b600060208284031215610380578081fd5b5035919050565b6000602080835283518082850152825b818110156103b357858101830151858201604001528201610397565b818111156103c45783604083870101525b50601f01601f1916929092016040019392505050565b90815260200190565b6002810460018216806103f757607f821691505b6020821081141561041857634e487b7160e01b600052602260045260246000fd5b50919050565b634e487b7160e01b600052604160045260246000fdfea264697066735822122004e71e92cf662a189771ef837ecb1b58ba438d811b8696a288fc8127c86e738964736f6c63430008000033",
  "immutableReferences": {},
  "source": "// SPDX-License-Identifier: MIT\npragma solidity ^0.8.0;\n\n\ncontract Medicine {\n    string public name;\n    string public medicineImage;\n    uint256 public dose;\n    uint256 public numTimes;\n    uint256 public date;\n\n    function setName(string memory _name) public {\n        name = _name;\n    }\n\n    function setMedicineImage(string memory _medicineImage) public {\n        medicineImage = _medicineImage;\n    }\n\n    function setDose(uint256 _dose) public {\n        dose = _dose;\n    }\n\n    function setNumTimes(uint256 _numTimes) public {\n        numTimes = _numTimes;\n    }\n\n    function setDate(uint256 _date) public {\n        date = _date;\n    }\n}\n",
  "sourcePath": "C:\\Users\\20109\\OneDrive\\Desktop\\projects\\FCAi\\graduation\\try\\image - Copy\\contracts\\Medicine.sol",
  "compiler": {
    "name": "solc",
    "version": "0.8.0+commit.c7dfd78e.Emscripten.clang"
  },
  "schemaVersion": "3.4.16",
  "updatedAt": "2024-07-08T06:50:59.599Z",
  "devdoc": {
    "kind": "dev",
    "methods": {},
    "version": 1
  },
  "userdoc": {
    "kind": "user",
    "methods": {},
    "version": 1
  }
}