{
  "contractName": "Medicinee",
  "abi": [
    {
      "anonymous": false,
      "inputs": [
        {
          "indexed": true,
          "internalType": "uint256",
          "name": "id",
          "type": "uint256"
        },
        {
          "indexed": false,
          "internalType": "string",
          "name": "name",
          "type": "string"
        },
        {
          "indexed": false,
          "internalType": "uint256",
          "name": "dose",
          "type": "uint256"
        },
        {
          "indexed": false,
          "internalType": "uint256",
          "name": "numTimes",
          "type": "uint256"
        }
      ],
      "name": "MedicineAdded",
      "type": "event"
    },
    {
      "inputs": [],
      "name": "medicineCount",
      "outputs": [
        {
          "internalType": "uint256",
          "name": "",
          "type": "uint256"
        }
      ],
      "stateMutability": "view",
      "type": "function"
    },
    {
      "inputs": [
        {
          "internalType": "uint256",
          "name": "",
          "type": "uint256"
        }
      ],
      "name": "medicines",
      "outputs": [
        {
          "internalType": "string",
          "name": "name",
          "type": "string"
        },
        {
          "internalType": "uint256",
          "name": "dose",
          "type": "uint256"
        },
        {
          "internalType": "uint256",
          "name": "numTimes",
          "type": "uint256"
        }
      ],
      "stateMutability": "view",
      "type": "function"
    },
    {
      "inputs": [
        {
          "internalType": "uint256",
          "name": "_id",
          "type": "uint256"
        },
        {
          "internalType": "string",
          "name": "_name",
          "type": "string"
        },
        {
          "internalType": "uint256",
          "name": "_dose",
          "type": "uint256"
        },
        {
          "internalType": "uint256",
          "name": "_numTimes",
          "type": "uint256"
        }
      ],
      "name": "addMedicine",
      "outputs": [],
      "stateMutability": "nonpayable",
      "type": "function"
    },
    {
      "inputs": [
        {
          "internalType": "uint256",
          "name": "_id",
          "type": "uint256"
        }
      ],
      "name": "getMedicine",
      "outputs": [
        {
          "internalType": "string",
          "name": "",
          "type": "string"
        },
        {
          "internalType": "uint256",
          "name": "",
          "type": "uint256"
        },
        {
          "internalType": "uint256",
          "name": "",
          "type": "uint256"
        }
      ],
      "stateMutability": "view",
      "type": "function"
    }
  ],
  "bytecode": "0x608060405234801561001057600080fd5b5061057d806100206000396000f3fe608060405234801561001057600080fd5b506004361061004c5760003560e01c80634dafd4901461005157806353811fad1461006f578063a674226514610084578063c85e766d146100a6575b600080fd5b6100596100b9565b60405161006691906104c6565b60405180910390f35b61008261007d3660046103aa565b6100bf565b005b610097610092366004610392565b61016a565b60405161006693929190610464565b6100976100b4366004610392565b61024f565b60015481565b600180549060006100cf8361050a565b9091555050604080516060810182528481526020808201859052818301849052600087815280825292909220815180519293919261011092849201906102f9565b506020820151816001015560408201518160020155905050837fefad3d115b4ae90874e0f9a8055898ef5a907e66523a156afdc2ba98a82cfc8a84848460405161015c93929190610464565b60405180910390a250505050565b6060600080600080600086815260200190815260200160002060405180606001604052908160008201805461019e906104cf565b80601f01602080910402602001604051908101604052809291908181526020018280546101ca906104cf565b80156102175780601f106101ec57610100808354040283529160200191610217565b820191906000526020600020905b8154815290600101906020018083116101fa57829003601f168201915b505050918352505060018201546020808301919091526002909201546040918201528251918301519201519097919650945092505050565b60006020819052908152604090208054819061026a906104cf565b80601f0160208091040260200160405190810160405280929190818152602001828054610296906104cf565b80156102e35780601f106102b8576101008083540402835291602001916102e3565b820191906000526020600020905b8154815290600101906020018083116102c657829003601f168201915b5050505050908060010154908060020154905083565b828054610305906104cf565b90600052602060002090601f016020900481019282610327576000855561036d565b82601f1061034057805160ff191683800117855561036d565b8280016001018555821561036d579182015b8281111561036d578251825591602001919060010190610352565b5061037992915061037d565b5090565b5b80821115610379576000815560010161037e565b6000602082840312156103a3578081fd5b5035919050565b600080600080608085870312156103bf578283fd5b8435935060208086013567ffffffffffffffff808211156103de578586fd5b818801915088601f8301126103f1578586fd5b81358181111561040357610403610531565b604051601f8201601f191681018501838111828210171561042657610426610531565b60405281815283820185018b101561043c578788fd5b8185850186830137908101909301959095525093969395505050506040820135916060013590565b6000606082528451806060840152815b818110156104915760208188018101516080868401015201610474565b818111156104a25782608083860101525b5060208301949094525060408101919091526080601f909201601f19160101919050565b90815260200190565b6002810460018216806104e357607f821691505b6020821081141561050457634e487b7160e01b600052602260045260246000fd5b50919050565b600060001982141561052a57634e487b7160e01b81526011600452602481fd5b5060010190565b634e487b7160e01b600052604160045260246000fdfea26469706673582212207611f990db5786ac59b22fa3f61b7ea45587eda72e1789a57dc130ed3f07fdee64736f6c63430008000033",
  "immutableReferences": {},
  "source": "// SPDX-License-Identifier: MIT\npragma solidity ^0.8.0;\n\n\ncontract Medicinee {\n    struct MedicineRecord {\n        string name;\n        uint256 dose;\n        uint256 numTimes;\n    }\n\n    mapping(uint256 => MedicineRecord) public medicines;\n    uint256 public medicineCount;\n\n    event MedicineAdded(uint256 indexed id, string name, uint256 dose, uint256 numTimes);\n\n    function addMedicine(uint256 _id, string memory _name, uint256 _dose, uint256 _numTimes) public {\n        medicineCount++;\n        medicines[_id] = MedicineRecord(_name, _dose, _numTimes);\n        emit MedicineAdded(_id, _name, _dose, _numTimes);\n    }\n\n    function getMedicine(uint256 _id) public view returns (string memory, uint256, uint256) {\n        MedicineRecord memory medicine = medicines[_id];\n        return (medicine.name, medicine.dose, medicine.numTimes);\n    }\n}",
  "sourcePath": "C:\\Users\\20109\\OneDrive\\Desktop\\projects\\FCAi\\graduation\\try\\image - Copy\\contracts\\Medicinee.sol",
  "compiler": {
    "name": "solc",
    "version": "0.8.0+commit.c7dfd78e.Emscripten.clang"
  },
  "schemaVersion": "3.4.16",
  "updatedAt": "2024-07-08T06:50:59.606Z",
  "devdoc": {
    "kind": "dev",
    "methods": {},
    "version": 1
  },
  "userdoc": {
    "kind": "user",
    "methods": {},
    "version": 1
  }
}