{
  "contractName": "Patient",
  "abi": [
    {
      "anonymous": false,
      "inputs": [
        {
          "indexed": false,
          "internalType": "uint256",
          "name": "nationalId",
          "type": "uint256"
        },
        {
          "indexed": false,
          "internalType": "string",
          "name": "name",
          "type": "string"
        },
        {
          "indexed": false,
          "internalType": "string",
          "name": "dateOfBirth",
          "type": "string"
        },
        {
          "indexed": false,
          "internalType": "string",
          "name": "email",
          "type": "string"
        },
        {
          "indexed": false,
          "internalType": "string",
          "name": "password",
          "type": "string"
        },
        {
          "indexed": false,
          "internalType": "string",
          "name": "hasSurgeriesBefore",
          "type": "string"
        }
      ],
      "name": "PatientAdded",
      "type": "event"
    },
    {
      "inputs": [],
      "name": "patientCount",
      "outputs": [
        {
          "internalType": "uint256",
          "name": "",
          "type": "uint256"
        }
      ],
      "stateMutability": "view",
      "type": "function",
      "constant": true
    },
    {
      "inputs": [
        {
          "internalType": "uint256",
          "name": "",
          "type": "uint256"
        }
      ],
      "name": "patientRecords",
      "outputs": [
        {
          "internalType": "uint256",
          "name": "nationalId",
          "type": "uint256"
        },
        {
          "internalType": "string",
          "name": "name",
          "type": "string"
        },
        {
          "internalType": "string",
          "name": "dateOfBirth",
          "type": "string"
        },
        {
          "internalType": "string",
          "name": "email",
          "type": "string"
        },
        {
          "internalType": "string",
          "name": "password",
          "type": "string"
        },
        {
          "internalType": "string",
          "name": "hasSurgeriesBefore",
          "type": "string"
        }
      ],
      "stateMutability": "view",
      "type": "function",
      "constant": true
    },
    {
      "inputs": [
        {
          "internalType": "uint256",
          "name": "_nationalId",
          "type": "uint256"
        },
        {
          "internalType": "string",
          "name": "_name",
          "type": "string"
        },
        {
          "internalType": "string",
          "name": "_dateOfBirth",
          "type": "string"
        },
        {
          "internalType": "string",
          "name": "_email",
          "type": "string"
        },
        {
          "internalType": "string",
          "name": "_password",
          "type": "string"
        },
        {
          "internalType": "string",
          "name": "_hasSurgeriesBefore",
          "type": "string"
        }
      ],
      "name": "addPatient",
      "outputs": [],
      "stateMutability": "nonpayable",
      "type": "function"
    },
    {
      "inputs": [
        {
          "internalType": "uint256",
          "name": "_nationalId",
          "type": "uint256"
        }
      ],
      "name": "getPatient",
      "outputs": [
        {
          "internalType": "uint256",
          "name": "",
          "type": "uint256"
        },
        {
          "internalType": "string",
          "name": "",
          "type": "string"
        },
        {
          "internalType": "string",
          "name": "",
          "type": "string"
        },
        {
          "internalType": "string",
          "name": "",
          "type": "string"
        },
        {
          "internalType": "string",
          "name": "",
          "type": "string"
        },
        {
          "internalType": "string",
          "name": "",
          "type": "string"
        }
      ],
      "stateMutability": "view",
      "type": "function",
      "constant": true
    }
  ],
  "bytecode": "0x608060405234801561001057600080fd5b50610b84806100206000396000f3fe608060405234801561001057600080fd5b506004361061004c5760003560e01c8063628295d9146100515780637d3a679614610066578063a0303c4114610094578063d3d188a1146100a9575b600080fd5b61006461005f36600461093a565b6100bc565b005b610079610074366004610922565b6101e5565b60405161008b96959493929190610a62565b60405180910390f35b61009c610525565b60405161008b9190610a59565b6100796100b7366004610922565b61052b565b600180549060006100cc83610b11565b90915550506040805160c0810182528781526020808201888152828401889052606083018790526080830186905260a0830185905260008a81528083529390932082518155925180519293926101289260018501920190610808565b5060408201518051610144916002840191602090910190610808565b5060608201518051610160916003840191602090910190610808565b506080820151805161017c916004840191602090910190610808565b5060a08201518051610198916005840191602090910190610808565b509050507f808b8f3b457d1dd142ed2add68dd4c389d815d1fdc8cfebb7662a449368916798686868686866040516101d596959493929190610a62565b60405180910390a1505050505050565b6000606080606080606060008060008981526020019081526020016000206040518060c00160405290816000820154815260200160018201805461022890610ad6565b80601f016020809104026020016040519081016040528092919081815260200182805461025490610ad6565b80156102a15780601f10610276576101008083540402835291602001916102a1565b820191906000526020600020905b81548152906001019060200180831161028457829003601f168201915b505050505081526020016002820180546102ba90610ad6565b80601f01602080910402602001604051908101604052809291908181526020018280546102e690610ad6565b80156103335780601f1061030857610100808354040283529160200191610333565b820191906000526020600020905b81548152906001019060200180831161031657829003601f168201915b5050505050815260200160038201805461034c90610ad6565b80601f016020809104026020016040519081016040528092919081815260200182805461037890610ad6565b80156103c55780601f1061039a576101008083540402835291602001916103c5565b820191906000526020600020905b8154815290600101906020018083116103a857829003601f168201915b505050505081526020016004820180546103de90610ad6565b80601f016020809104026020016040519081016040528092919081815260200182805461040a90610ad6565b80156104575780601f1061042c57610100808354040283529160200191610457565b820191906000526020600020905b81548152906001019060200180831161043a57829003601f168201915b5050505050815260200160058201805461047090610ad6565b80601f016020809104026020016040519081016040528092919081815260200182805461049c90610ad6565b80156104e95780601f106104be576101008083540402835291602001916104e9565b820191906000526020600020905b8154815290600101906020018083116104cc57829003601f168201915b5050509190925250508151602083015160408401516060850151608086015160a090960151939e929d50909b5099509297509550909350505050565b60015481565b6000602081905290815260409020805460018201805491929161054d90610ad6565b80601f016020809104026020016040519081016040528092919081815260200182805461057990610ad6565b80156105c65780601f1061059b576101008083540402835291602001916105c6565b820191906000526020600020905b8154815290600101906020018083116105a957829003601f168201915b5050505050908060020180546105db90610ad6565b80601f016020809104026020016040519081016040528092919081815260200182805461060790610ad6565b80156106545780601f1061062957610100808354040283529160200191610654565b820191906000526020600020905b81548152906001019060200180831161063757829003601f168201915b50505050509080600301805461066990610ad6565b80601f016020809104026020016040519081016040528092919081815260200182805461069590610ad6565b80156106e25780601f106106b7576101008083540402835291602001916106e2565b820191906000526020600020905b8154815290600101906020018083116106c557829003601f168201915b5050505050908060040180546106f790610ad6565b80601f016020809104026020016040519081016040528092919081815260200182805461072390610ad6565b80156107705780601f1061074557610100808354040283529160200191610770565b820191906000526020600020905b81548152906001019060200180831161075357829003601f168201915b50505050509080600501805461078590610ad6565b80601f01602080910402602001604051908101604052809291908181526020018280546107b190610ad6565b80156107fe5780601f106107d3576101008083540402835291602001916107fe565b820191906000526020600020905b8154815290600101906020018083116107e157829003601f168201915b5050505050905086565b82805461081490610ad6565b90600052602060002090601f016020900481019282610836576000855561087c565b82601f1061084f57805160ff191683800117855561087c565b8280016001018555821561087c579182015b8281111561087c578251825591602001919060010190610861565b5061088892915061088c565b5090565b5b80821115610888576000815560010161088d565b600082601f8301126108b1578081fd5b813567ffffffffffffffff808211156108cc576108cc610b38565b604051601f8301601f1916810160200182811182821017156108f0576108f0610b38565b604052828152848301602001861015610907578384fd5b82602086016020830137918201602001929092529392505050565b600060208284031215610933578081fd5b5035919050565b60008060008060008060c08789031215610952578182fd5b86359550602087013567ffffffffffffffff80821115610970578384fd5b61097c8a838b016108a1565b96506040890135915080821115610991578384fd5b61099d8a838b016108a1565b955060608901359150808211156109b2578384fd5b6109be8a838b016108a1565b945060808901359150808211156109d3578384fd5b6109df8a838b016108a1565b935060a08901359150808211156109f4578283fd5b50610a0189828a016108a1565b9150509295509295509295565b60008151808452815b81811015610a3357602081850181015186830182015201610a17565b81811115610a445782602083870101525b50601f01601f19169290920160200192915050565b90815260200190565b600087825260c06020830152610a7b60c0830188610a0e565b8281036040840152610a8d8188610a0e565b90508281036060840152610aa18187610a0e565b90508281036080840152610ab58186610a0e565b905082810360a0840152610ac98185610a0e565b9998505050505050505050565b600281046001821680610aea57607f821691505b60208210811415610b0b57634e487b7160e01b600052602260045260246000fd5b50919050565b6000600019821415610b3157634e487b7160e01b81526011600452602481fd5b5060010190565b634e487b7160e01b600052604160045260246000fdfea26469706673582212202c3fc887f703a08f442a4e2f6793516f09af9c9e8ef329214a2dd05edbb9dca564736f6c63430008000033",
  "immutableReferences": {},
  "source": "// SPDX-License-Identifier: MIT\npragma solidity ^0.8.0;\n\ncontract Patient {\n    struct PatientRecord {\n        uint256 nationalId;\n        string name;\n        string dateOfBirth;\n        string email;\n        string password;\n        string hasSurgeriesBefore;\n    }\n\n    mapping(uint256 => PatientRecord) public patientRecords;\n    uint256 public patientCount;\n\n    event PatientAdded(\n        uint256 nationalId,\n        string name,\n        string dateOfBirth,\n        string email,\n        string password,\n        string hasSurgeriesBefore\n    );\n\n    function addPatient(\n        uint256 _nationalId,\n        string memory _name,\n        string memory _dateOfBirth,\n        string memory _email,\n        string memory _password,\n        string memory _hasSurgeriesBefore\n    ) public {\n        patientCount++;\n        patientRecords[_nationalId] = PatientRecord(\n            _nationalId,\n            _name,\n            _dateOfBirth,\n            _email,\n            _password,\n            _hasSurgeriesBefore\n        );\n        emit PatientAdded(\n            _nationalId,\n            _name,\n            _dateOfBirth,\n            _email,\n            _password,\n            _hasSurgeriesBefore\n        );\n    }\n\n    function getPatient(uint256 _nationalId) public view returns (\n        uint256,\n        string memory,\n        string memory,\n        string memory,\n        string memory,\n        string memory\n    ) {\n        PatientRecord memory patient = patientRecords[_nationalId];\n        return (\n            patient.nationalId,\n            patient.name,\n            patient.dateOfBirth,\n            patient.email,\n            patient.password,\n            patient.hasSurgeriesBefore\n        );\n    }\n}\n\n\n\n",
  "sourcePath": "C:\\Users\\20109\\OneDrive\\Desktop\\projects\\FCAi\\graduation\\try\\image - Copy\\contracts\\Patient.sol",
  "compiler": {
    "name": "solc",
    "version": "0.8.0+commit.c7dfd78e.Emscripten.clang"
  },
  "schemaVersion": "3.4.16",
  "updatedAt": "2024-07-08T14:23:37.893Z",
  "networkType": "ethereum",
  "devdoc": {
    "kind": "dev",
    "methods": {},
    "version": 1
  },
  "userdoc": {
    "kind": "user",
    "methods": {},
    "version": 1
  }
}