{
  "contractName": "Prescription",
  "abi": [
    {
      "anonymous": false,
      "inputs": [
        {
          "indexed": true,
          "internalType": "uint256",
          "name": "nationalId",
          "type": "uint256"
        },
        {
          "indexed": false,
          "internalType": "string",
          "name": "imageUrl",
          "type": "string"
        },
        {
          "indexed": false,
          "internalType": "string",
          "name": "date",
          "type": "string"
        }
      ],
      "name": "PrescriptionAdded",
      "type": "event"
    },
    {
      "inputs": [
        {
          "internalType": "uint256",
          "name": "_nationalId",
          "type": "uint256"
        },
        {
          "internalType": "string",
          "name": "_imageUrl",
          "type": "string"
        },
        {
          "internalType": "string",
          "name": "_date",
          "type": "string"
        }
      ],
      "name": "addPrescription",
      "outputs": [],
      "stateMutability": "nonpayable",
      "type": "function"
    },
    {
      "inputs": [
        {
          "internalType": "uint256",
          "name": "_nationalId",
          "type": "uint256"
        }
      ],
      "name": "getPrescriptionsByNationalId",
      "outputs": [
        {
          "components": [
            {
              "internalType": "uint256",
              "name": "nationalId",
              "type": "uint256"
            },
            {
              "internalType": "string",
              "name": "imageUrl",
              "type": "string"
            },
            {
              "internalType": "string",
              "name": "date",
              "type": "string"
            }
          ],
          "internalType": "struct Prescription.PrescriptionRecord[]",
          "name": "",
          "type": "tuple[]"
        }
      ],
      "stateMutability": "view",
      "type": "function",
      "constant": true
    }
  ],
  "bytecode": "0x608060405234801561001057600080fd5b506105f2806100206000396000f3fe608060405234801561001057600080fd5b50600436106100365760003560e01c8063bc1539e41461003b578063f735901314610064575b600080fd5b61004e6100493660046103e2565b610079565b60405161005b91906104af565b60405180910390f35b6100776100723660046103fa565b610210565b005b600081815260208181526040808320805482518185028101850190935280835260609492939192909184015b828210156102055783829060005260206000209060030201604051806060016040529081600082015481526020016001820180546100e29061056b565b80601f016020809104026020016040519081016040528092919081815260200182805461010e9061056b565b801561015b5780601f106101305761010080835404028352916020019161015b565b820191906000526020600020905b81548152906001019060200180831161013e57829003601f168201915b505050505081526020016002820180546101749061056b565b80601f01602080910402602001604051908101604052809291908181526020018280546101a09061056b565b80156101ed5780601f106101c2576101008083540402835291602001916101ed565b820191906000526020600020905b8154815290600101906020018083116101d057829003601f168201915b505050505081525050815260200190600101906100a5565b505050509050919050565b6040805160608101825284815260208082018581528284018590526000878152808352938420805460018181018355918652948390208451600390960201948555905180519394859490936102699385019201906102c8565b50604082015180516102859160028401916020909101906102c8565b505050837fd9b5361685390c932019391d346d688db4f0b89bf0e7207766012cc803cec4c284846040516102ba92919061053d565b60405180910390a250505050565b8280546102d49061056b565b90600052602060002090601f0160209004810192826102f6576000855561033c565b82601f1061030f57805160ff191683800117855561033c565b8280016001018555821561033c579182015b8281111561033c578251825591602001919060010190610321565b5061034892915061034c565b5090565b5b80821115610348576000815560010161034d565b600082601f830112610371578081fd5b813567ffffffffffffffff8082111561038c5761038c6105a6565b604051601f8301601f1916810160200182811182821017156103b0576103b06105a6565b6040528281528483016020018610156103c7578384fd5b82602086016020830137918201602001929092529392505050565b6000602082840312156103f3578081fd5b5035919050565b60008060006060848603121561040e578182fd5b83359250602084013567ffffffffffffffff8082111561042c578384fd5b61043887838801610361565b9350604086013591508082111561044d578283fd5b5061045a86828701610361565b9150509250925092565b60008151808452815b818110156104895760208185018101518683018201520161046d565b8181111561049a5782602083870101525b50601f01601f19169290920160200192915050565b60208082528251828201819052600091906040908185019080840286018301878501865b8381101561052f57603f19898403018552815160608151855288820151818a87015261050182870182610464565b9150508782015191508481038886015261051b8183610464565b9689019694505050908601906001016104d3565b509098975050505050505050565b6000604082526105506040830185610464565b82810360208401526105628185610464565b95945050505050565b60028104600182168061057f57607f821691505b602082108114156105a057634e487b7160e01b600052602260045260246000fd5b50919050565b634e487b7160e01b600052604160045260246000fdfea264697066735822122059bef38bce822041c04fa8261c60cebe351e261115a7d7a3d39bfe81b47fc53564736f6c63430008000033",
  "immutableReferences": {},
  "source": "// SPDX-License-Identifier: MIT\npragma solidity ^0.8.0;\npragma experimental ABIEncoderV2;\n\ncontract Prescription {\n    struct PrescriptionRecord {\n        uint256 nationalId;\n        string imageUrl;\n        string date;\n    }\n\n    mapping(uint256 => PrescriptionRecord[]) private prescriptions;\n\n    event PrescriptionAdded(\n        uint256 indexed nationalId,\n        string imageUrl,\n        string date\n    );\n\n    function addPrescription(\n        uint256 _nationalId,\n        string memory _imageUrl,\n        string memory _date\n    ) public {\n        PrescriptionRecord memory newPrescription = PrescriptionRecord({\n            nationalId: _nationalId,\n            imageUrl: _imageUrl,\n            date: _date\n        });\n\n        prescriptions[_nationalId].push(newPrescription);\n\n        emit PrescriptionAdded(_nationalId, _imageUrl, _date);\n    }\n\n    function getPrescriptionsByNationalId(uint256 _nationalId)\n        public\n        view\n        returns (PrescriptionRecord[] memory)\n    {\n        return prescriptions[_nationalId];\n    }\n}",
  "sourcePath": "C:\\Users\\20109\\OneDrive\\Desktop\\projects\\FCAi\\graduation\\try\\image - Copy\\contracts\\Prescription.sol",
  "compiler": {
    "name": "solc",
    "version": "0.8.0+commit.c7dfd78e.Emscripten.clang"
  },
  "schemaVersion": "3.4.16",
  "updatedAt": "2024-07-08T14:23:38.693Z",
  "networkType": "ethereum",
  "devdoc": {
    "kind": "dev",
    "methods": {},
    "version": 1
  },
  "userdoc": {
    "kind": "user",
    "methods": {},
    "version": 1
  }
}