{
  "contractName": "StoreMedicine",
  "abi": [
    {
      "anonymous": false,
      "inputs": [
        {
          "indexed": false,
          "internalType": "uint256",
          "name": "id",
          "type": "uint256"
        },
        {
          "indexed": false,
          "internalType": "uint256",
          "name": "nationalId",
          "type": "uint256"
        },
        {
          "indexed": false,
          "internalType": "string",
          "name": "img",
          "type": "string"
        }
      ],
      "name": "MedicineImgAdded",
      "type": "event"
    },
    {
      "anonymous": false,
      "inputs": [
        {
          "indexed": false,
          "internalType": "uint256",
          "name": "id",
          "type": "uint256"
        },
        {
          "indexed": false,
          "internalType": "uint256",
          "name": "nationalId",
          "type": "uint256"
        },
        {
          "indexed": false,
          "internalType": "string",
          "name": "name",
          "type": "string"
        }
      ],
      "name": "MedicineNameAdded",
      "type": "event"
    },
    {
      "inputs": [],
      "name": "medicineCount",
      "outputs": [
        {
          "internalType": "uint256",
          "name": "",
          "type": "uint256"
        }
      ],
      "stateMutability": "view",
      "type": "function"
    },
    {
      "inputs": [
        {
          "internalType": "uint256",
          "name": "",
          "type": "uint256"
        }
      ],
      "name": "medicines",
      "outputs": [
        {
          "internalType": "uint256",
          "name": "nationalId",
          "type": "uint256"
        },
        {
          "internalType": "string",
          "name": "name",
          "type": "string"
        },
        {
          "internalType": "string",
          "name": "img",
          "type": "string"
        }
      ],
      "stateMutability": "view",
      "type": "function"
    },
    {
      "inputs": [
        {
          "internalType": "uint256",
          "name": "_nationalId",
          "type": "uint256"
        },
        {
          "internalType": "string",
          "name": "_name",
          "type": "string"
        }
      ],
      "name": "addMedicineName",
      "outputs": [],
      "stateMutability": "nonpayable",
      "type": "function"
    },
    {
      "inputs": [
        {
          "internalType": "uint256",
          "name": "_nationalId",
          "type": "uint256"
        },
        {
          "internalType": "string",
          "name": "_img",
          "type": "string"
        }
      ],
      "name": "addMedicineImg",
      "outputs": [],
      "stateMutability": "nonpayable",
      "type": "function"
    },
    {
      "inputs": [
        {
          "internalType": "uint256",
          "name": "_id",
          "type": "uint256"
        }
      ],
      "name": "getMedicine",
      "outputs": [
        {
          "internalType": "uint256",
          "name": "",
          "type": "uint256"
        },
        {
          "internalType": "string",
          "name": "",
          "type": "string"
        },
        {
          "internalType": "string",
          "name": "",
          "type": "string"
        }
      ],
      "stateMutability": "view",
      "type": "function"
    }
  ],
  "bytecode": "0x6080604052600060015534801561001557600080fd5b50610821806100256000396000f3fe608060405234801561001057600080fd5b50600436106100575760003560e01c80634dafd4901461005c578063a21a118f1461007a578063a67422651461008f578063c85e766d146100b1578063c916092a146100c4575b600080fd5b6100646100d7565b604051610071919061070d565b60405180910390f35b61008d6100883660046105e8565b6100dd565b005b6100a261009d3660046105d0565b6101a3565b60405161007193929190610716565b6100a26100bf3660046105d0565b610348565b61008d6100d23660046105e8565b61047b565b60015481565b600180549060006100ed836107ae565b9091555050604080516060810182528381528151602081810184526000808352818401928352838501869052600180548252818352949020835181559151805193949293610142938501929190910190610537565b506040820151805161015e916002840191602090910190610537565b509050507f245a017a81b781e704dba9d2bba5d988cafa5585c39b0201ab78ea51de8ca84f60015483836040516101979392919061074b565b60405180910390a15050565b60006060806000841180156101ba57506001548411155b6101df5760405162461bcd60e51b81526004016101d6906106e0565b60405180910390fd5b60008060008681526020019081526020016000206040518060600160405290816000820154815260200160018201805461021890610773565b80601f016020809104026020016040519081016040528092919081815260200182805461024490610773565b80156102915780601f1061026657610100808354040283529160200191610291565b820191906000526020600020905b81548152906001019060200180831161027457829003601f168201915b505050505081526020016002820180546102aa90610773565b80601f01602080910402602001604051908101604052809291908181526020018280546102d690610773565b80156103235780601f106102f857610100808354040283529160200191610323565b820191906000526020600020905b81548152906001019060200180831161030657829003601f168201915b5050509190925250508151602083015160409093015190989297509550909350505050565b6000602081905290815260409020805460018201805491929161036a90610773565b80601f016020809104026020016040519081016040528092919081815260200182805461039690610773565b80156103e35780601f106103b8576101008083540402835291602001916103e3565b820191906000526020600020905b8154815290600101906020018083116103c657829003601f168201915b5050505050908060020180546103f890610773565b80601f016020809104026020016040519081016040528092919081815260200182805461042490610773565b80156104715780601f1061044657610100808354040283529160200191610471565b820191906000526020600020905b81548152906001019060200180831161045457829003601f168201915b5050505050905083565b6001805490600061048b836107ae565b9091555050604080516060810182528381526020808201848152835180830185526000808252848601919091526001805482528184529490208351815590518051939491936104e293928501929190910190610537565b50604082015180516104fe916002840191602090910190610537565b509050507f43566b7ec2831e6115b946aedf8c7cc700f151a2b7d4505c41cf910932aee27560015483836040516101979392919061074b565b82805461054390610773565b90600052602060002090601f01602090048101928261056557600085556105ab565b82601f1061057e57805160ff19168380011785556105ab565b828001600101855582156105ab579182015b828111156105ab578251825591602001919060010190610590565b506105b79291506105bb565b5090565b5b808211156105b757600081556001016105bc565b6000602082840312156105e1578081fd5b5035919050565b600080604083850312156105fa578081fd5b8235915060208084013567ffffffffffffffff80821115610619578384fd5b818601915086601f83011261062c578384fd5b81358181111561063e5761063e6107d5565b604051601f8201601f1916810185018381118282101715610661576106616107d5565b6040528181528382018501891015610677578586fd5b81858501868301378585838301015280955050505050509250929050565b60008151808452815b818110156106ba5760208185018101518683018201520161069e565b818111156106cb5782602083870101525b50601f01601f19169290920160200192915050565b602080825260139082015272125b9d985b1a59081b59591a58da5b99481251606a1b604082015260600190565b90815260200190565b60008482526060602083015261072f6060830185610695565b82810360408401526107418185610695565b9695505050505050565b60008482528360208301526060604083015261076a6060830184610695565b95945050505050565b60028104600182168061078757607f821691505b602082108114156107a857634e487b7160e01b600052602260045260246000fd5b50919050565b60006000198214156107ce57634e487b7160e01b81526011600452602481fd5b5060010190565b634e487b7160e01b600052604160045260246000fdfea26469706673582212200edb5dbaca8ef532aa2be13dfb8b33d10b99479777770c7b919105012df9f53c64736f6c63430008000033",
  "immutableReferences": {},
  "source": "// SPDX-License-Identifier: MIT\npragma solidity ^0.8.0;\n\n\ncontract StoreMedicine {\n    struct Medicine {\n        uint256 nationalId;\n        string name;\n        string img;\n    }\n\n    mapping(uint256 => Medicine) public medicines;\n    uint256 public medicineCount = 0;\n\n    event MedicineNameAdded(uint256 id, uint256 nationalId, string name);\n    event MedicineImgAdded(uint256 id, uint256 nationalId, string img);\n\n    function addMedicineName(uint256 _nationalId, string memory _name) public {\n        medicineCount++;\n        medicines[medicineCount] = Medicine(_nationalId, _name, \"\");\n        emit MedicineNameAdded(medicineCount, _nationalId, _name);\n    }\n\n    function addMedicineImg(uint256 _nationalId, string memory _img) public {\n        medicineCount++;\n        medicines[medicineCount] = Medicine(_nationalId, \"\", _img);\n        emit MedicineImgAdded(medicineCount, _nationalId, _img);\n    }\n\n    function getMedicine(uint256 _id)\n        public\n        view\n        returns (uint256, string memory, string memory)\n    {\n        require(_id > 0 && _id <= medicineCount, \"Invalid medicine ID\");\n        Medicine memory medicine = medicines[_id];\n        return (medicine.nationalId, medicine.name, medicine.img);\n    }\n}\n",
  "sourcePath": "C:\\Users\\20109\\OneDrive\\Desktop\\projects\\FCAi\\graduation\\try\\image - Copy\\contracts\\StoreMedicine.sol",
  "compiler": {
    "name": "solc",
    "version": "0.8.0+commit.c7dfd78e.Emscripten.clang"
  },
  "schemaVersion": "3.4.16",
  "updatedAt": "2024-07-08T06:50:59.639Z",
  "devdoc": {
    "kind": "dev",
    "methods": {},
    "version": 1
  },
  "userdoc": {
    "kind": "user",
    "methods": {},
    "version": 1
  }
}