{
  "contractName": "Student",
  "abi": [
    {
      "anonymous": false,
      "inputs": [
        {
          "indexed": false,
          "internalType": "uint256",
          "name": "id",
          "type": "uint256"
        },
        {
          "indexed": false,
          "internalType": "string",
          "name": "name",
          "type": "string"
        },
        {
          "indexed": false,
          "internalType": "string",
          "name": "email",
          "type": "string"
        },
        {
          "indexed": false,
          "internalType": "string",
          "name": "password",
          "type": "string"
        },
        {
          "indexed": false,
          "internalType": "string",
          "name": "certificateHash",
          "type": "string"
        },
        {
          "indexed": false,
          "internalType": "string",
          "name": "dateOfBirth",
          "type": "string"
        }
      ],
      "name": "StudentAdded",
      "type": "event"
    },
    {
      "inputs": [],
      "name": "studentCount",
      "outputs": [
        {
          "internalType": "uint256",
          "name": "",
          "type": "uint256"
        }
      ],
      "stateMutability": "view",
      "type": "function"
    },
    {
      "inputs": [
        {
          "internalType": "uint256",
          "name": "",
          "type": "uint256"
        }
      ],
      "name": "students",
      "outputs": [
        {
          "internalType": "uint256",
          "name": "id",
          "type": "uint256"
        },
        {
          "internalType": "string",
          "name": "name",
          "type": "string"
        },
        {
          "internalType": "string",
          "name": "email",
          "type": "string"
        },
        {
          "internalType": "string",
          "name": "password",
          "type": "string"
        },
        {
          "internalType": "string",
          "name": "certificateHash",
          "type": "string"
        },
        {
          "internalType": "string",
          "name": "dateOfBirth",
          "type": "string"
        }
      ],
      "stateMutability": "view",
      "type": "function"
    },
    {
      "inputs": [
        {
          "internalType": "uint256",
          "name": "_id",
          "type": "uint256"
        },
        {
          "internalType": "string",
          "name": "_name",
          "type": "string"
        },
        {
          "internalType": "string",
          "name": "_email",
          "type": "string"
        },
        {
          "internalType": "string",
          "name": "_password",
          "type": "string"
        },
        {
          "internalType": "string",
          "name": "_certificateHash",
          "type": "string"
        },
        {
          "internalType": "string",
          "name": "_dateOfBirth",
          "type": "string"
        }
      ],
      "name": "addStudent",
      "outputs": [],
      "stateMutability": "nonpayable",
      "type": "function"
    },
    {
      "inputs": [
        {
          "internalType": "uint256",
          "name": "_id",
          "type": "uint256"
        }
      ],
      "name": "getStudent",
      "outputs": [
        {
          "internalType": "uint256",
          "name": "",
          "type": "uint256"
        },
        {
          "internalType": "string",
          "name": "",
          "type": "string"
        },
        {
          "internalType": "string",
          "name": "",
          "type": "string"
        },
        {
          "internalType": "string",
          "name": "",
          "type": "string"
        },
        {
          "internalType": "string",
          "name": "",
          "type": "string"
        },
        {
          "internalType": "string",
          "name": "",
          "type": "string"
        }
      ],
      "stateMutability": "view",
      "type": "function"
    },
    {
      "inputs": [],
      "name": "getAllStudents",
      "outputs": [
        {
          "components": [
            {
              "internalType": "uint256",
              "name": "id",
              "type": "uint256"
            },
            {
              "internalType": "string",
              "name": "name",
              "type": "string"
            },
            {
              "internalType": "string",
              "name": "email",
              "type": "string"
            },
            {
              "internalType": "string",
              "name": "password",
              "type": "string"
            },
            {
              "internalType": "string",
              "name": "certificateHash",
              "type": "string"
            },
            {
              "internalType": "string",
              "name": "dateOfBirth",
              "type": "string"
            }
          ],
          "internalType": "struct Student.StudentRecord[]",
          "name": "",
          "type": "tuple[]"
        }
      ],
      "stateMutability": "view",
      "type": "function"
    }
  ],
  "bytecode": "0x608060405234801561001057600080fd5b50611093806100206000396000f3fe608060405234801561001057600080fd5b50600436106100575760003560e01c806306ead22e1461005c5780632ccf55421461008a578063642f91631461009f578063e581f9ee146100b2578063e9e30927146100c7575b600080fd5b61006f61006a366004610d52565b6100dc565b60405161008196959493929190610f71565b60405180910390f35b61009d610098366004610d6a565b6103b9565b005b61006f6100ad366004610d52565b6104e2565b6100ba610822565b6040516100819190610f68565b6100cf610828565b6040516100819190610e89565b600060208190529081526040902080546001820180549192916100fe90610fe5565b80601f016020809104026020016040519081016040528092919081815260200182805461012a90610fe5565b80156101775780601f1061014c57610100808354040283529160200191610177565b820191906000526020600020905b81548152906001019060200180831161015a57829003601f168201915b50505050509080600201805461018c90610fe5565b80601f01602080910402602001604051908101604052809291908181526020018280546101b890610fe5565b80156102055780601f106101da57610100808354040283529160200191610205565b820191906000526020600020905b8154815290600101906020018083116101e857829003601f168201915b50505050509080600301805461021a90610fe5565b80601f016020809104026020016040519081016040528092919081815260200182805461024690610fe5565b80156102935780601f1061026857610100808354040283529160200191610293565b820191906000526020600020905b81548152906001019060200180831161027657829003601f168201915b5050505050908060040180546102a890610fe5565b80601f01602080910402602001604051908101604052809291908181526020018280546102d490610fe5565b80156103215780601f106102f657610100808354040283529160200191610321565b820191906000526020600020905b81548152906001019060200180831161030457829003601f168201915b50505050509080600501805461033690610fe5565b80601f016020809104026020016040519081016040528092919081815260200182805461036290610fe5565b80156103af5780601f10610384576101008083540402835291602001916103af565b820191906000526020600020905b81548152906001019060200180831161039257829003601f168201915b5050505050905086565b600180549060006103c983611020565b90915550506040805160c0810182528781526020808201888152828401889052606083018790526080830186905260a0830185905260008a81528083529390932082518155925180519293926104259260018501920190610c02565b5060408201518051610441916002840191602090910190610c02565b506060820151805161045d916003840191602090910190610c02565b5060808201518051610479916004840191602090910190610c02565b5060a08201518051610495916005840191602090910190610c02565b509050507f552d7a7b2cc9fc6db021bcd1a30d794aac5937d58dff36ae3bbd24d18fe9085e8686868686866040516104d296959493929190610f71565b60405180910390a1505050505050565b6000606080606080606060008060008981526020019081526020016000206040518060c00160405290816000820154815260200160018201805461052590610fe5565b80601f016020809104026020016040519081016040528092919081815260200182805461055190610fe5565b801561059e5780601f106105735761010080835404028352916020019161059e565b820191906000526020600020905b81548152906001019060200180831161058157829003601f168201915b505050505081526020016002820180546105b790610fe5565b80601f01602080910402602001604051908101604052809291908181526020018280546105e390610fe5565b80156106305780601f1061060557610100808354040283529160200191610630565b820191906000526020600020905b81548152906001019060200180831161061357829003601f168201915b5050505050815260200160038201805461064990610fe5565b80601f016020809104026020016040519081016040528092919081815260200182805461067590610fe5565b80156106c25780601f10610697576101008083540402835291602001916106c2565b820191906000526020600020905b8154815290600101906020018083116106a557829003601f168201915b505050505081526020016004820180546106db90610fe5565b80601f016020809104026020016040519081016040528092919081815260200182805461070790610fe5565b80156107545780601f1061072957610100808354040283529160200191610754565b820191906000526020600020905b81548152906001019060200180831161073757829003601f168201915b5050505050815260200160058201805461076d90610fe5565b80601f016020809104026020016040519081016040528092919081815260200182805461079990610fe5565b80156107e65780601f106107bb576101008083540402835291602001916107e6565b820191906000526020600020905b8154815290600101906020018083116107c957829003601f168201915b5050509190925250508151602083015160408401516060850151608086015160a090960151939e929d50909b5099509297509550909350505050565b60015481565b6060600060015467ffffffffffffffff81111561085557634e487b7160e01b600052604160045260246000fd5b60405190808252806020026020018201604052801561088e57816020015b61087b610c86565b8152602001906001900390816108735790505b5090506000805b600154811015610bfa5760008181526020819052604090205415610be85760008181526020818152604091829020825160c081019093528054835260018101805491928401916108e490610fe5565b80601f016020809104026020016040519081016040528092919081815260200182805461091090610fe5565b801561095d5780601f106109325761010080835404028352916020019161095d565b820191906000526020600020905b81548152906001019060200180831161094057829003601f168201915b5050505050815260200160028201805461097690610fe5565b80601f01602080910402602001604051908101604052809291908181526020018280546109a290610fe5565b80156109ef5780601f106109c4576101008083540402835291602001916109ef565b820191906000526020600020905b8154815290600101906020018083116109d257829003601f168201915b50505050508152602001600382018054610a0890610fe5565b80601f0160208091040260200160405190810160405280929190818152602001828054610a3490610fe5565b8015610a815780601f10610a5657610100808354040283529160200191610a81565b820191906000526020600020905b815481529060010190602001808311610a6457829003601f168201915b50505050508152602001600482018054610a9a90610fe5565b80601f0160208091040260200160405190810160405280929190818152602001828054610ac690610fe5565b8015610b135780601f10610ae857610100808354040283529160200191610b13565b820191906000526020600020905b815481529060010190602001808311610af657829003601f168201915b50505050508152602001600582018054610b2c90610fe5565b80601f0160208091040260200160405190810160405280929190818152602001828054610b5890610fe5565b8015610ba55780601f10610b7a57610100808354040283529160200191610ba5565b820191906000526020600020905b815481529060010190602001808311610b8857829003601f168201915b505050505081525050838381518110610bce57634e487b7160e01b600052603260045260246000fd5b60200260200101819052508180610be490611020565b9250505b80610bf281611020565b915050610895565b509091505090565b828054610c0e90610fe5565b90600052602060002090601f016020900481019282610c305760008555610c76565b82601f10610c4957805160ff1916838001178555610c76565b82800160010185558215610c76579182015b82811115610c76578251825591602001919060010190610c5b565b50610c82929150610cbc565b5090565b6040518060c001604052806000815260200160608152602001606081526020016060815260200160608152602001606081525090565b5b80821115610c825760008155600101610cbd565b600082601f830112610ce1578081fd5b813567ffffffffffffffff80821115610cfc57610cfc611047565b604051601f8301601f191681016020018281118282101715610d2057610d20611047565b604052828152848301602001861015610d37578384fd5b82602086016020830137918201602001929092529392505050565b600060208284031215610d63578081fd5b5035919050565b60008060008060008060c08789031215610d82578182fd5b86359550602087013567ffffffffffffffff80821115610da0578384fd5b610dac8a838b01610cd1565b96506040890135915080821115610dc1578384fd5b610dcd8a838b01610cd1565b95506060890135915080821115610de2578384fd5b610dee8a838b01610cd1565b94506080890135915080821115610e03578384fd5b610e0f8a838b01610cd1565b935060a0890135915080821115610e24578283fd5b50610e3189828a01610cd1565b9150509295509295509295565b60008151808452815b81811015610e6357602081850181015186830182015201610e47565b81811115610e745782602083870101525b50601f01601f19169290920160200192915050565b60208082528251828201819052600091906040908185019080840286018301878501865b83811015610f5a57603f19898403018552815160c08151855288820151818a870152610edb82870182610e3e565b9150508782015185820389870152610ef38282610e3e565b91505060608083015186830382880152610f0d8382610e3e565b9250505060808083015186830382880152610f288382610e3e565b9250505060a08083015192508582038187015250610f468183610e3e565b968901969450505090860190600101610ead565b509098975050505050505050565b90815260200190565b600087825260c06020830152610f8a60c0830188610e3e565b8281036040840152610f9c8188610e3e565b90508281036060840152610fb08187610e3e565b90508281036080840152610fc48186610e3e565b905082810360a0840152610fd88185610e3e565b9998505050505050505050565b600281046001821680610ff957607f821691505b6020821081141561101a57634e487b7160e01b600052602260045260246000fd5b50919050565b600060001982141561104057634e487b7160e01b81526011600452602481fd5b5060010190565b634e487b7160e01b600052604160045260246000fdfea2646970667358221220ec7cd1b45c564ebf0ca2c7309a3bc80dd76655d722bbb5ea56969d04b44670c864736f6c63430008000033",
  "immutableReferences": {},
  "source": "// SPDX-License-Identifier: MIT\npragma solidity ^0.8.0;\n\ncontract Student {\n    struct StudentRecord {\n        uint256 id;\n        string name;\n        string email;\n        string password; // New attribute\n        string certificateHash; // New attribute\n        string dateOfBirth; // New attribute\n    }\n\n    mapping(uint256 => StudentRecord) public students;\n    uint256 public studentCount;\n\n    event StudentAdded(uint256 id, string name, string email, string password, string certificateHash, string dateOfBirth);\n\n    function addStudent(\n        uint256 _id, \n        string memory _name, \n        string memory _email, \n        string memory _password, \n        string memory _certificateHash, \n        string memory _dateOfBirth\n    ) public {\n        studentCount++;\n        students[_id] = StudentRecord(_id, _name, _email, _password, _certificateHash, _dateOfBirth);\n        emit StudentAdded(_id, _name, _email, _password, _certificateHash, _dateOfBirth);\n    }\n\n    function getStudent(uint256 _id) public view returns (\n        uint256, \n        string memory, \n        string memory, \n        string memory, \n        string memory, \n        string memory\n    ) {\n        StudentRecord memory student = students[_id];\n        return (\n            student.id, \n            student.name, \n            student.email, \n            student.password, \n            student.certificateHash, \n            student.dateOfBirth\n        );\n    }\n\n    function getAllStudents() public view returns (StudentRecord[] memory) {\n        StudentRecord[] memory allStudents = new StudentRecord[](studentCount);\n        uint256 index = 0;\n\n        for (uint256 i = 0; i < studentCount; i++) {\n            if (students[i].id != 0) {\n                allStudents[index] = students[i];\n                index++;\n            }\n        }\n\n        return allStudents;\n    }\n}\n",
  "sourcePath": "C:\\Users\\20109\\OneDrive\\Desktop\\projects\\FCAi\\graduation\\try\\image - Copy\\contracts\\Student.sol",
  "compiler": {
    "name": "solc",
    "version": "0.8.0+commit.c7dfd78e.Emscripten.clang"
  },
  "schemaVersion": "3.4.16",
  "updatedAt": "2024-07-08T06:50:59.652Z",
  "devdoc": {
    "kind": "dev",
    "methods": {},
    "version": 1
  },
  "userdoc": {
    "kind": "user",
    "methods": {},
    "version": 1
  }
}