{
  "contractName": "Surgery",
  "abi": [
    {
      "anonymous": false,
      "inputs": [
        {
          "indexed": false,
          "internalType": "uint256",
          "name": "nationalId",
          "type": "uint256"
        },
        {
          "indexed": false,
          "internalType": "string",
          "name": "imageUrl",
          "type": "string"
        },
        {
          "indexed": false,
          "internalType": "string",
          "name": "date",
          "type": "string"
        }
      ],
      "name": "SurgeryAdded",
      "type": "event"
    },
    {
      "inputs": [
        {
          "internalType": "uint256",
          "name": "",
          "type": "uint256"
        }
      ],
      "name": "surgeries",
      "outputs": [
        {
          "internalType": "uint256",
          "name": "nationalId",
          "type": "uint256"
        },
        {
          "internalType": "string",
          "name": "imageUrl",
          "type": "string"
        },
        {
          "internalType": "string",
          "name": "date",
          "type": "string"
        }
      ],
      "stateMutability": "view",
      "type": "function",
      "constant": true
    },
    {
      "inputs": [],
      "name": "surgeryCount",
      "outputs": [
        {
          "internalType": "uint256",
          "name": "",
          "type": "uint256"
        }
      ],
      "stateMutability": "view",
      "type": "function",
      "constant": true
    },
    {
      "inputs": [
        {
          "internalType": "uint256",
          "name": "_nationalId",
          "type": "uint256"
        },
        {
          "internalType": "string",
          "name": "_imageUrl",
          "type": "string"
        },
        {
          "internalType": "string",
          "name": "_date",
          "type": "string"
        }
      ],
      "name": "addSurgery",
      "outputs": [],
      "stateMutability": "nonpayable",
      "type": "function"
    },
    {
      "inputs": [
        {
          "internalType": "uint256",
          "name": "_nationalId",
          "type": "uint256"
        }
      ],
      "name": "getSurgery",
      "outputs": [
        {
          "internalType": "uint256",
          "name": "",
          "type": "uint256"
        },
        {
          "internalType": "string",
          "name": "",
          "type": "string"
        },
        {
          "internalType": "string",
          "name": "",
          "type": "string"
        }
      ],
      "stateMutability": "view",
      "type": "function",
      "constant": true
    }
  ],
  "bytecode": "0x608060405234801561001057600080fd5b506106ea806100206000396000f3fe608060405234801561001057600080fd5b506004361061004c5760003560e01c80630b5d32f81461005157806366c7433214610066578063e6d892dc14610084578063ee4b38db146100a6575b600080fd5b61006461005f366004610549565b6100b9565b005b61006e610170565b60405161007b91906105fe565b60405180910390f35b610097610092366004610531565b610176565b60405161007b93929190610607565b6100976100b4366004610531565b6102a9565b600180549060006100c983610677565b909155505060408051606081018252848152602080820185815282840185905260008781528083529390932082518155925180519293926101109260018501920190610417565b506040820151805161012c916002840191602090910190610417565b509050507f4df6cf5c211caf1f6c2f7b9314424d2d5f8c80c6785aecdaf240f71722a4519e83838360405161016393929190610607565b60405180910390a1505050565b60015481565b600060208190529081526040902080546001820180549192916101989061063c565b80601f01602080910402602001604051908101604052809291908181526020018280546101c49061063c565b80156102115780601f106101e657610100808354040283529160200191610211565b820191906000526020600020905b8154815290600101906020018083116101f457829003601f168201915b5050505050908060020180546102269061063c565b80601f01602080910402602001604051908101604052809291908181526020018280546102529061063c565b801561029f5780601f106102745761010080835404028352916020019161029f565b820191906000526020600020905b81548152906001019060200180831161028257829003601f168201915b5050505050905083565b60006060806000806000868152602001908152602001600020604051806060016040529081600082015481526020016001820180546102e79061063c565b80601f01602080910402602001604051908101604052809291908181526020018280546103139061063c565b80156103605780601f1061033557610100808354040283529160200191610360565b820191906000526020600020905b81548152906001019060200180831161034357829003601f168201915b505050505081526020016002820180546103799061063c565b80601f01602080910402602001604051908101604052809291908181526020018280546103a59061063c565b80156103f25780601f106103c7576101008083540402835291602001916103f2565b820191906000526020600020905b8154815290600101906020018083116103d557829003601f168201915b5050509190925250508151602083015160409093015190989297509550909350505050565b8280546104239061063c565b90600052602060002090601f016020900481019282610445576000855561048b565b82601f1061045e57805160ff191683800117855561048b565b8280016001018555821561048b579182015b8281111561048b578251825591602001919060010190610470565b5061049792915061049b565b5090565b5b80821115610497576000815560010161049c565b600082601f8301126104c0578081fd5b813567ffffffffffffffff808211156104db576104db61069e565b604051601f8301601f1916810160200182811182821017156104ff576104ff61069e565b604052828152848301602001861015610516578384fd5b82602086016020830137918201602001929092529392505050565b600060208284031215610542578081fd5b5035919050565b60008060006060848603121561055d578182fd5b83359250602084013567ffffffffffffffff8082111561057b578384fd5b610587878388016104b0565b9350604086013591508082111561059c578283fd5b506105a9868287016104b0565b9150509250925092565b60008151808452815b818110156105d8576020818501810151868301820152016105bc565b818111156105e95782602083870101525b50601f01601f19169290920160200192915050565b90815260200190565b60008482526060602083015261062060608301856105b3565b828103604084015261063281856105b3565b9695505050505050565b60028104600182168061065057607f821691505b6020821081141561067157634e487b7160e01b600052602260045260246000fd5b50919050565b600060001982141561069757634e487b7160e01b81526011600452602481fd5b5060010190565b634e487b7160e01b600052604160045260246000fdfea26469706673582212209bddb73631c2621cf09c4dd67d0f3150a7ade52ef2ef3866c096b3b92f4e254964736f6c63430008000033",
  "immutableReferences": {},
  "source": "// SPDX-License-Identifier: MIT\npragma solidity ^0.8.0;\n\ncontract Surgery {\n    struct SurgeryRecord {\n        uint256 nationalId;\n        string imageUrl;\n        string date;\n    }\n\n    mapping(uint256 => SurgeryRecord) public surgeries;\n    uint256 public surgeryCount;\n\n    event SurgeryAdded(uint256 nationalId, string imageUrl, string date);\n\n    function addSurgery(\n        uint256 _nationalId,\n        string memory _imageUrl,\n        string memory _date\n    ) public {\n        surgeryCount++;\n        surgeries[_nationalId] = SurgeryRecord(_nationalId, _imageUrl, _date);\n        emit SurgeryAdded(_nationalId, _imageUrl, _date);\n    }\n\n    function getSurgery(uint256 _nationalId) public view returns (\n        uint256,\n        string memory,\n        string memory\n    ) {\n        SurgeryRecord memory surgery = surgeries[_nationalId];\n        return (surgery.nationalId, surgery.imageUrl, surgery.date);\n    }\n}",
  "sourcePath": "C:\\Users\\20109\\OneDrive\\Desktop\\projects\\FCAi\\graduation\\try\\image - Copy\\contracts\\Surgery.sol",
  "compiler": {
    "name": "solc",
    "version": "0.8.0+commit.c7dfd78e.Emscripten.clang"
  },
  "schemaVersion": "3.4.16",
  "updatedAt": "2024-07-08T14:23:38.416Z",
  "networkType": "ethereum",
  "devdoc": {
    "kind": "dev",
    "methods": {},
    "version": 1
  },
  "userdoc": {
    "kind": "user",
    "methods": {},
    "version": 1
  }
}