{
  "contractName": "UploadPrescription",
  "abi": [
    {
      "anonymous": false,
      "inputs": [
        {
          "indexed": false,
          "internalType": "uint256",
          "name": "id",
          "type": "uint256"
        },
        {
          "indexed": false,
          "internalType": "uint256",
          "name": "nationalId",
          "type": "uint256"
        },
        {
          "indexed": false,
          "internalType": "string",
          "name": "img",
          "type": "string"
        }
      ],
      "name": "PrescriptionAdded",
      "type": "event"
    },
    {
      "inputs": [],
      "name": "prescriptionCount",
      "outputs": [
        {
          "internalType": "uint256",
          "name": "",
          "type": "uint256"
        }
      ],
      "stateMutability": "view",
      "type": "function"
    },
    {
      "inputs": [
        {
          "internalType": "uint256",
          "name": "",
          "type": "uint256"
        }
      ],
      "name": "prescriptions",
      "outputs": [
        {
          "internalType": "uint256",
          "name": "nationalId",
          "type": "uint256"
        },
        {
          "internalType": "string",
          "name": "img",
          "type": "string"
        }
      ],
      "stateMutability": "view",
      "type": "function"
    },
    {
      "inputs": [
        {
          "internalType": "uint256",
          "name": "_nationalId",
          "type": "uint256"
        },
        {
          "internalType": "string",
          "name": "_img",
          "type": "string"
        }
      ],
      "name": "addPrescription",
      "outputs": [],
      "stateMutability": "nonpayable",
      "type": "function"
    },
    {
      "inputs": [
        {
          "internalType": "uint256",
          "name": "_id",
          "type": "uint256"
        }
      ],
      "name": "getPrescription",
      "outputs": [
        {
          "internalType": "uint256",
          "name": "",
          "type": "uint256"
        },
        {
          "internalType": "string",
          "name": "",
          "type": "string"
        }
      ],
      "stateMutability": "view",
      "type": "function"
    }
  ],
  "bytecode": "0x6080604052600060015534801561001557600080fd5b506105eb806100256000396000f3fe608060405234801561001057600080fd5b506004361061004c5760003560e01c806331dfc91b146100515780636f16af101461007b578063b65584981461008e578063e571fd2d146100a3575b600080fd5b61006461005f3660046103a4565b6100b8565b6040516100729291906104f4565b60405180910390f35b6100646100893660046103a4565b61015d565b610096610269565b60405161007291906104eb565b6100b66100b13660046103bc565b61026f565b005b600060208190529081526040902080546001820180549192916100da9061053d565b80601f01602080910402602001604051908101604052809291908181526020018280546101069061053d565b80156101535780601f1061012857610100808354040283529160200191610153565b820191906000526020600020905b81548152906001019060200180831161013657829003601f168201915b5050505050905082565b6000606060008311801561017357506001548311155b6101985760405162461bcd60e51b815260040161018f906104b4565b60405180910390fd5b6000806000858152602001908152602001600020604051806040016040529081600082015481526020016001820180546101d19061053d565b80601f01602080910402602001604051908101604052809291908181526020018280546101fd9061053d565b801561024a5780601f1061021f5761010080835404028352916020019161024a565b820191906000526020600020905b81548152906001019060200180831161022d57829003601f168201915b5050505050815250509050806000015181602001519250925050915091565b60015481565b6001805490600061027f83610578565b90915550506040805180820182528381526020808201848152600180546000908152808452949094208351815590518051939491936102c69392850192919091019061030b565b509050507fbcc1f628a9a96f81f1257ace55c3738fbc1c55d9306eb10ccbb07a25d1d6e84360015483836040516102ff93929190610515565b60405180910390a15050565b8280546103179061053d565b90600052602060002090601f016020900481019282610339576000855561037f565b82601f1061035257805160ff191683800117855561037f565b8280016001018555821561037f579182015b8281111561037f578251825591602001919060010190610364565b5061038b92915061038f565b5090565b5b8082111561038b5760008155600101610390565b6000602082840312156103b5578081fd5b5035919050565b600080604083850312156103ce578081fd5b8235915060208084013567ffffffffffffffff808211156103ed578384fd5b818601915086601f830112610400578384fd5b8135818111156104125761041261059f565b604051601f8201601f19168101850183811182821017156104355761043561059f565b604052818152838201850189101561044b578586fd5b81858501868301378585838301015280955050505050509250929050565b60008151808452815b8181101561048e57602081850181015186830182015201610472565b8181111561049f5782602083870101525b50601f01601f19169290920160200192915050565b60208082526017908201527f496e76616c696420707265736372697074696f6e204944000000000000000000604082015260600190565b90815260200190565b60008382526040602083015261050d6040830184610469565b949350505050565b6000848252836020830152606060408301526105346060830184610469565b95945050505050565b60028104600182168061055157607f821691505b6020821081141561057257634e487b7160e01b600052602260045260246000fd5b50919050565b600060001982141561059857634e487b7160e01b81526011600452602481fd5b5060010190565b634e487b7160e01b600052604160045260246000fdfea2646970667358221220fdd1448070ee5cb34a89de0bec398ef9e339121e72fc04f6699eb6a3f155048d64736f6c63430008000033",
  "immutableReferences": {},
  "source": "// SPDX-License-Identifier: MIT\npragma solidity ^0.8.0;\n\n\ncontract UploadPrescription {\n    struct Prescription {\n        uint256 nationalId;\n        string img;\n    }\n\n    mapping(uint256 => Prescription) public prescriptions;\n    uint256 public prescriptionCount = 0;\n\n    event PrescriptionAdded(uint256 id, uint256 nationalId, string img);\n\n    function addPrescription(uint256 _nationalId, string memory _img) public {\n        prescriptionCount++;\n        prescriptions[prescriptionCount] = Prescription(_nationalId, _img);\n        emit PrescriptionAdded(prescriptionCount, _nationalId, _img);\n    }\n\n    function getPrescription(uint256 _id)\n        public\n        view\n        returns (uint256, string memory)\n    {\n        require(_id > 0 && _id <= prescriptionCount, \"Invalid prescription ID\");\n        Prescription memory prescription = prescriptions[_id];\n        return (prescription.nationalId, prescription.img);\n    }\n}\n",
  "sourcePath": "C:\\Users\\20109\\OneDrive\\Desktop\\projects\\FCAi\\graduation\\try\\image - Copy\\contracts\\UploadPrescription.sol",
  "compiler": {
    "name": "solc",
    "version": "0.8.0+commit.c7dfd78e.Emscripten.clang"
  },
  "schemaVersion": "3.4.16",
  "updatedAt": "2024-07-08T06:50:59.662Z",
  "devdoc": {
    "kind": "dev",
    "methods": {},
    "version": 1
  },
  "userdoc": {
    "kind": "user",
    "methods": {},
    "version": 1
  }
}