{
  "contractName": "XRay",
  "abi": [
    {
      "anonymous": false,
      "inputs": [
        {
          "indexed": false,
          "internalType": "uint256",
          "name": "nationalId",
          "type": "uint256"
        },
        {
          "indexed": false,
          "internalType": "string",
          "name": "imageUrl",
          "type": "string"
        },
        {
          "indexed": false,
          "internalType": "string",
          "name": "date",
          "type": "string"
        }
      ],
      "name": "XRayAdded",
      "type": "event"
    },
    {
      "inputs": [],
      "name": "xrayCount",
      "outputs": [
        {
          "internalType": "uint256",
          "name": "",
          "type": "uint256"
        }
      ],
      "stateMutability": "view",
      "type": "function",
      "constant": true
    },
    {
      "inputs": [
        {
          "internalType": "uint256",
          "name": "",
          "type": "uint256"
        }
      ],
      "name": "xrays",
      "outputs": [
        {
          "internalType": "uint256",
          "name": "nationalId",
          "type": "uint256"
        },
        {
          "internalType": "string",
          "name": "imageUrl",
          "type": "string"
        },
        {
          "internalType": "string",
          "name": "date",
          "type": "string"
        }
      ],
      "stateMutability": "view",
      "type": "function",
      "constant": true
    },
    {
      "inputs": [
        {
          "internalType": "uint256",
          "name": "_nationalId",
          "type": "uint256"
        },
        {
          "internalType": "string",
          "name": "_imageUrl",
          "type": "string"
        },
        {
          "internalType": "string",
          "name": "_date",
          "type": "string"
        }
      ],
      "name": "addXRay",
      "outputs": [],
      "stateMutability": "nonpayable",
      "type": "function"
    },
    {
      "inputs": [
        {
          "internalType": "uint256",
          "name": "_nationalId",
          "type": "uint256"
        }
      ],
      "name": "getXRay",
      "outputs": [
        {
          "internalType": "uint256",
          "name": "",
          "type": "uint256"
        },
        {
          "internalType": "string",
          "name": "",
          "type": "string"
        },
        {
          "internalType": "string",
          "name": "",
          "type": "string"
        }
      ],
      "stateMutability": "view",
      "type": "function",
      "constant": true
    }
  ],
  "bytecode": "0x608060405234801561001057600080fd5b506106ea806100206000396000f3fe608060405234801561001057600080fd5b506004361061004c5760003560e01c80632b3d8f4f14610051578063326a8adb1461007c5780635605c80614610091578063ff918367146100a6575b600080fd5b61006461005f366004610531565b6100b9565b60405161007393929190610607565b60405180910390f35b61008f61008a366004610549565b610227565b005b6100996102de565b60405161007391906105fe565b6100646100b4366004610531565b6102e4565b60006060806000806000868152602001908152602001600020604051806060016040529081600082015481526020016001820180546100f79061063c565b80601f01602080910402602001604051908101604052809291908181526020018280546101239061063c565b80156101705780601f1061014557610100808354040283529160200191610170565b820191906000526020600020905b81548152906001019060200180831161015357829003601f168201915b505050505081526020016002820180546101899061063c565b80601f01602080910402602001604051908101604052809291908181526020018280546101b59061063c565b80156102025780601f106101d757610100808354040283529160200191610202565b820191906000526020600020905b8154815290600101906020018083116101e557829003601f168201915b5050509190925250508151602083015160409093015190989297509550909350505050565b6001805490600061023783610677565b9091555050604080516060810182528481526020808201858152828401859052600087815280835293909320825181559251805192939261027e9260018501920190610417565b506040820151805161029a916002840191602090910190610417565b509050507f28af3eccccd3d43a8a7cee796210d9a88b080f026a9018f84f57342c6b2b80af8383836040516102d193929190610607565b60405180910390a1505050565b60015481565b600060208190529081526040902080546001820180549192916103069061063c565b80601f01602080910402602001604051908101604052809291908181526020018280546103329061063c565b801561037f5780601f106103545761010080835404028352916020019161037f565b820191906000526020600020905b81548152906001019060200180831161036257829003601f168201915b5050505050908060020180546103949061063c565b80601f01602080910402602001604051908101604052809291908181526020018280546103c09061063c565b801561040d5780601f106103e25761010080835404028352916020019161040d565b820191906000526020600020905b8154815290600101906020018083116103f057829003601f168201915b5050505050905083565b8280546104239061063c565b90600052602060002090601f016020900481019282610445576000855561048b565b82601f1061045e57805160ff191683800117855561048b565b8280016001018555821561048b579182015b8281111561048b578251825591602001919060010190610470565b5061049792915061049b565b5090565b5b80821115610497576000815560010161049c565b600082601f8301126104c0578081fd5b813567ffffffffffffffff808211156104db576104db61069e565b604051601f8301601f1916810160200182811182821017156104ff576104ff61069e565b604052828152848301602001861015610516578384fd5b82602086016020830137918201602001929092529392505050565b600060208284031215610542578081fd5b5035919050565b60008060006060848603121561055d578182fd5b83359250602084013567ffffffffffffffff8082111561057b578384fd5b610587878388016104b0565b9350604086013591508082111561059c578283fd5b506105a9868287016104b0565b9150509250925092565b60008151808452815b818110156105d8576020818501810151868301820152016105bc565b818111156105e95782602083870101525b50601f01601f19169290920160200192915050565b90815260200190565b60008482526060602083015261062060608301856105b3565b828103604084015261063281856105b3565b9695505050505050565b60028104600182168061065057607f821691505b6020821081141561067157634e487b7160e01b600052602260045260246000fd5b50919050565b600060001982141561069757634e487b7160e01b81526011600452602481fd5b5060010190565b634e487b7160e01b600052604160045260246000fdfea2646970667358221220495511399f77b8a8f7f22d694550b6346726e12ec589de153ad3b08c6210076d64736f6c63430008000033",
  "immutableReferences": {},
  "source": "// SPDX-License-Identifier: MIT\npragma solidity ^0.8.0;\n\ncontract XRay {\n    struct XRayRecord {\n        uint256 nationalId;\n        string imageUrl;\n        string date;\n    }\n\n    mapping(uint256 => XRayRecord) public xrays;\n    uint256 public xrayCount;\n\n    event XRayAdded(uint256 nationalId, string imageUrl, string date);\n\n    function addXRay(\n        uint256 _nationalId,\n        string memory _imageUrl,\n        string memory _date\n    ) public {\n        xrayCount++;\n        xrays[_nationalId] = XRayRecord(_nationalId, _imageUrl, _date);\n        emit XRayAdded(_nationalId, _imageUrl, _date);\n    }\n\n    function getXRay(uint256 _nationalId) public view returns (\n        uint256,\n        string memory,\n        string memory\n    ) {\n        XRayRecord memory xray = xrays[_nationalId];\n        return (xray.nationalId, xray.imageUrl, xray.date);\n    }\n}",
  "sourcePath": "C:\\Users\\20109\\OneDrive\\Desktop\\projects\\FCAi\\graduation\\try\\image - Copy\\contracts\\XRay.sol",
  "compiler": {
    "name": "solc",
    "version": "0.8.0+commit.c7dfd78e.Emscripten.clang"
  },
  "schemaVersion": "3.4.16",
  "updatedAt": "2024-07-08T14:23:39.007Z",
  "networkType": "ethereum",
  "devdoc": {
    "kind": "dev",
    "methods": {},
    "version": 1
  },
  "userdoc": {
    "kind": "user",
    "methods": {},
    "version": 1
  }
}